:020000041000EA
:1000000000B5324B212058609868022188439860DF
:10001000D860186158612E4B002199600221596106
:100020000121F02299502B49196001219960352056
:1000300000F044F80222904214D00621196600F024
:1000400034F8196E01211966002018661A6600F04E
:100050002CF8196E196E196E052000F02FF8012189
:100060000842F9D1002199601B49196000215960AB
:100070001A491B48016001219960EB211966A021F2
:10008000196600F012F800219960164914480160C1
:100090000121996001BC002800D000471248134993
:1000A000086003C880F30888084703B5996A0420EC
:1000B0000142FBD001200142F8D103BD02B5186610
:1000C0001866FFF7F2FF186E186E02BD00000240BE
:1000D000000000180000070000035F00212200005C
:1000E000F4000018222000A00001001008ED00E03C
:1000F00000000000000000000000000074B24E7A12
:1001000000200420F7010010C3010010C5010010F9
:10011000C1010010C1010010C1010010C101001097
:10012000C1010010C1010010C1010010C701001081
:10013000C1010010C1010010C9010010CB01001065
:10014000CD010010CD010010CD010010CD01001037
:10015000CD010010CD010010CD010010CD01001027
:10016000CD010010CD010010CD010010CD01001017
:10017000CD010010CD010010CD010010CD01001007
:10018000CD010010CD010010CD010010CD010010F7
:10019000CD010010CD010010CD010010CD010010E7
:1001A000CD010010CD010010CD010010CD010010D7
:1001B000CD010010CD010010CD010010CD010010C7
:1001C00000BE00BE00BE00BE00BE00BEEFF3058054
:1001D000103800BEF2EB887198830010BC830010C9
:1001E0003402001090A31AE700201F49086006C8D7
:1001F00081F3088810471D48006800282FD10DA4FE
:100200000ECC002902D000F012F8F9E71849194A7B
:10021000002000E001C19142FCD1174988471749ED
:1002200088471749884700BEFDE701C901C29A42C5
:10023000FBD37047BC830010C0000020280B0020B7
:10024000248E00100000042000000420248E0010E2
:10025000001004200010042000000000704709482E
:1002600003F08EFC0047000008ED00E0000000D025
:10027000280B00202C13022085230010CD0B00102A
:10028000AD2400105756000006005250ABB3605327
:10029000D081001006005250861C0302E08100103D
:1002A000060052505422A29DE881001005005250D1
:1002B000DE65F468248E0010F8B5C0460448054B8E
:1002C00010B5834203D0044B002B00D0984710BDDB
:1002D000280B0020280B00200000000006480749DA
:1002E000091A8B10C90FC91810B5491003D0044B57
:1002F000002B00D0984710BD280B0020280B0020B1
:100300000000000010B5074C2378002B09D1FFF73F
:10031000D5FF054B002B02D0044800E000BF0123AD
:10032000237010BD280C002000000000307E00105B
:10033000054B10B5002B03D00449054800E000BF71
:10034000FFF7CCFF10BDC046000000002C0C0020C1
:10035000307E0010F0B5DE4657464E464546E0B5C5
:10036000642083B004F0DEFA431C99462F4B07004B
:1003700098462F4B00269B462E4B10249A462E4D16
:10038000AB691C4217D12200AB691A401C42FAD15A
:100390002B68DBB2732B2FD06D2B2DD0262B0ED0DC
:1003A0001A00303A092A01D92D2B23D1BB55AB694C
:1003B00001361C42E7D0142006F056F9E0E7BA55A2
:1003C0003B78732B1BD06D2B14D10A2201A9484610
:1003D00007F0B4FB5346012106004942186805F0B6
:1003E00001FC5046154B00221E60002100230068CE
:1003F00005F0B0F90026C3E701263B70C0E70A22EA
:1004000001A9484607F09AFB4346012106004942EC
:10041000186805F0E7FB5B4640461E60002200239B
:100420000021006805F096F90026A9E7280D0020B4
:1004300000020020240D002000400340100D002089
:10044000F0B5DE4657464E464546E0B5642085B0D9
:1004500004F068FA431C01934C4B07009B464C4B3D
:1004600000269A464B4B102499464B4B4B4D9846D1
:10047000AB691C421AD12200AB691A401C42FAD166
:100480002B68DBB219006239C9B2112912D8444A6B
:10049000CA40D20731D41A00303A092A01D92D2B8B
:1004A00029D1BB55AB6901361C42E4D0142006F0BB
:1004B000DBF8DDE7262BEED1BA553B78732B1FD046
:1004C000642B34D0652B49D0622B14D10A2203A9A6
:1004D000019807F033FB43460121060049421868A2
:1004E00005F080FB40462F4B00221E6000210023B8
:1004F000006805F02FF90026BAE701263B70B7E740
:100500000A2203A9019807F019FB5B4601210600A6
:100510004942186805F066FB5846234B00221E60CE
:1005200000210023006805F015F90026A0E70A2243
:1005300003A9019807F002FB534601210600494236
:10054000186805F04FFB5046184B00221E60002132
:100550000023006805F0FEF8002689E70A2203A9B7
:10056000019807F0EBFA4B46012106004942186852
:1005700005F038FB48460E4B00221E700021002378
:10058000006805F0E7F8002672E7C046280D002055
:100590001C0D0020200D0020140D002000800340C1
:1005A0000D000200880C002008020020FC0C002036
:1005B0000402002070B58025D024AD042E0024064E
:1005C000C820666106F050F8C820A56106F04CF816
:1005D000F6E7C046F0B5C646D02580271F4B00B5CC
:1005E00098461F4E2D06BF021EE08023DB02AF613E
:1005F0006B6123000E331C2B2DD9E317E4185C40EC
:100600009134FF342404240C164B0A201B685C40F0
:100610002404154B240C1C60144B1A6801239343CB
:10062000134A136006F020F801213068494205F0B2
:10063000D9FA43461C68002200230021306805F0E7
:1006400089F8002CD1DA8023DB026F61AB612300D3
:100650000E331C2BD1D80024D6E7C046FC0C00205A
:100660001C0D00200C0005400C100540000005404A
:1006700000100540F8B5D0234746CE4608221B0699
:1006800080B59A6108329A61104A00269046012787
:1006900099460F4D01212868494205F0A3FA4346C7
:1006A0001C680022002300212868241105F052F85C
:1006B0003C40002E04D1002C02D018234A46D361BE
:1006C000322005F0D1FF2600E4E7C046880C002068
:1006D000140D0020F0B5D026C6464023360600B5DE
:1006E000B3610D4B082798460C4C03E0B3613220F0
:1006F00005F0BAFF01212068494205F073FA43462C
:100700001D68002200230021206805F023F8402303
:100710002F42EBD07361EAE7880C0020140D002013
:10072000F8B5344B5746DE464E4645469B46324B5F
:10073000E0B59A46314F324E324CA3699B0646D4FF
:1007400001213868494205F04DFA5B461B680022DA
:10075000984600210023386804F0FCFF012130682E
:10076000494205F03FFA284B00221B7800219946A8
:100770003068002304F0EEFF642004F0D3F8050095
:100780004B464246514603F0C7F9287800281BD053
:100790001E4B202100229B5E2A009846002399468A
:1007A0000D339C464B46002B1CD1804514D0A369C9
:1007B0001942FCD12060137801320D3B584243416D
:1007C0001078DBB20028EED1280004F0C9F8FA2036
:1007D000400005F049FFB0E7A3691942FCD1634628
:1007E0002360E4E7A3691942E4D0A3691942F9D16F
:1007F000E0E7C04608020020307E0010280D0020EF
:10080000200D00200040034004020020E4100220DC
:10081000F8B5334B5746DE464E4645469B46314B70
:10082000E0B59A46304F314E314CA3699B0646D411
:1008300001213868494205F0D5F95B461B68002262
:10084000984600210023386804F084FF01213068B5
:10085000494205F0C7F953461B680022002199461A
:100860003068002304F076FF642004F05BF8050094
:100870004B4642461F4903F04FF9287800281BD009
:100880001D4B202102229B5E2A0098460023994698
:100890000D339C464B46002B1BD1804513D0A369DA
:1008A0001942FCD12060137801320D3B584243417C
:1008B0001078DBB20028EED1280004F051F8C820EF
:1008C00005F0D2FEB1E7A3691942FCD1634623606B
:1008D000E5E7A3691942E5D0A3691942F9D1E1E737
:1008E00000020020100D0020180D0020240D002013
:1008F000008003403C7E0010E4100220D023F0B5BD
:100900000222DE4657464E4645461B06E0B59A6132
:100910001E329A611F3A9A6103329A6100238BB0AA
:1009200008930793039302930493013309930023DD
:1009300001930593794B00249A46794B9B46794B5A
:100940009946794B984638E0079B002B00D09AE0F7
:10095000089B002B00D1B7E0D02302221B069A612E
:100960001E329A61049B002B00D0CAE0069A531EE7
:100970001343DB0F0493002308930793099300F0BC
:10098000DFFF00295FD0FA220023920003F08CF9E8
:10099000FA22059B5200C31A934208DB019B002BED
:1009A00056D0D023CE3A1B06FF3ADA6105902C00D0
:1009B000322005F059FE039602975346012118682C
:1009C000494205F00FF95B4650461D68002200239E
:1009D0000021006804F0BEFE4B4601211868494220
:1009E00005F000F9434648461B68002200210693A3
:1009F0000068002304F0AEFE01210A006B102A40BB
:100A0000AD100D40641B0E00611E8C4102996442C2
:100A100017001E402C40914203D0002A01D0012231
:100A20000792039AB24203D0DB0701D50123089352
:100A3000002C19D1019B002B86D00023049300F0D9
:100A40007FFF00299FD1FA21890003F0EFF89FE78B
:100A5000049B002B45D0099B002B3CD0D0232222A5
:100A60001B06DA610590A2E7D02302221B069A61D9
:100A70001E329A611F3A9A6103329A610123019AE8
:100A80005A400192D6E7D02301221B069A61033215
:100A90009A61049A002A07D1089A002A0AD00222F1
:100AA0009A611E329A6161E7089A002AF7D1099B80
:100AB000002B22D1069BDB43DB0F0493002308931A
:100AC0000793013309935AE7049B002B22D0099B1B
:100AD000002BEFD14AE7D02305221B06DA610590EF
:100AE00065E7D02302221B069A611E329A611F3AE3
:100AF0009A6103329A61059059E7002307930493A2
:100B00003DE7099B002B00D030E7089307930023B3
:100B1000049334E70893079331E7C046140D00208F
:100B2000880C00201C0D0020FC0C0020E12110B5D9
:100B30000F4C4902200001F0DFF902210C2000F0E7
:100B400043F902210D2000F03FF9C022236B12026D
:100B50001340084A13606022E36A5A406E23134030
:100B6000054A13601023E16A8B43136010BDC04631
:100B700000400340305003402C500340E12110B5A9
:100B80000F4C4902200001F0B7F90221082000F0C3
:100B90001BF90221092000F017F9C022236B120271
:100BA0001340084A13606022E36A5A406E231340E0
:100BB000054A13601023E16A8B43136010BDC046E1
:100BC00000800340309003402C900340F0B583B088
:100BD00004F040F8192000F00FF9D02480232406F7
:100BE0009B046362A361FFF7A1FFFFF7C7FF11201A
:100BF00000F002F980239B026362122000F0FCF8EF
:100C00008023DB0263627F2000F014F97F23226AD5
:100C100007209343E36200F0EFF880230E20A362E5
:100C200000F0EAF88023DB01A3620F2000F0E4F873
:100C3000802380271B02A3620A20FF0000F0DCF85B
:100C40000B20A76200F0D8F880231B01A3620421C7
:100C5000102000F0B9F8FA2301253F4A5B00136128
:100C60003E4B3F491B6801201B041B0C0B601368A3
:100C70002A009A433B4B00241A6004F051FE3A4B81
:100C800002261860012004F04BFE384B186001204A
:100C900004F046FE364B1860012004F041FE354B4F
:100CA0001860012004F03CFE334B1860012004F072
:100CB00037FE324B802218600323314900933148BC
:100CC0000023019405F0D0F9C02200232E4912011F
:100CD0002E480194009605F0C7F9C02200232C4944
:100CE00012012C480194009605F0BEF9C0220023A1
:100CF0002949120129480194009605F0B5F9C0224E
:100D000000232749120127480194009605F0ACF909
:100D100000238022244925480194009505F0A4F978
:100D200000233A00224923480194009505F09CF9DC
:100D300000238022204921480194009505F094F970
:100D4000002380221E491F480194009505F08CF96C
:100D500005F0CAFAFEE7C046000005400C00054059
:100D60000C10054000100540180D0020280D002033
:100D70001C0D0020200D0020140D0020240D00204B
:100D8000487E0010B5050010547E00105503001079
:100D9000707E001021070010887E001041040010B2
:100DA000A87E001011080010C47E0010D5050010A8
:100DB000D47E0010FD080010E87E001075060010BB
:100DC000FC7E0010D5060010094A8300944640229C
:100DD000634410B51C68C0006240C02414408022E7
:100DE000520113431C60034B9C466044416010BD9C
:100DF00004C00140004001400123D022834012067C
:100E000093629361094A83009446402263441968BF
:100E1000C0004A40C0211140802252011343196092
:100E2000034B9C46052360444360704704C0014067
:100E3000004001404021F0B5D6464F464646884620
:100E40008031D0258C46C0B5BB39802700230124D2
:100E50008A46104A2D067F01044211D02100994094
:100E60004646A962A96111687140664631403E005C
:100E700016433160084ED900B146564649440E60CB
:100E80000133400804321E2BE6D11CBC9046994623
:100E9000A246F0BD04C0014004400140024B186866
:100EA0008007C00F7047C04600C00640F8B5EFF39A
:100EB000108772B60E4E3368002BFCD0BFF35F8FE5
:100EC000CB08C4180725A446C45C01230D40AB40E1
:100ED00018002040234208D1624623431370BFF319
:100EE0005F8F306087F31088F8BD100001F0E2FAE0
:100EF0002C0100D00021044B044ABFF35F8F02C3D2
:100F00009342FAD17047C046000100D0800100D062
:100F1000044A1078431CDBB2172B00D9102313703E
:100F20007047C0460C02002001238340002904D0F2
:100F3000034A1360034A13607047034A1360FBE7D8
:100F400080E200E000E100E080E100E0024B1030D0
:100F50009B688000C058704700ED00E070B50D0040
:100F6000EFF3108672B60F4A1368002BFCD0BFF364
:100F70005F8F0D4B10309B6884001B590B4A9342C6
:100F800003D09D4201D001F0B3FA074B9B681D517D
:100F9000BFF35F8FBFF35F8F0022024B1A6086F3AF
:100FA000108870BD240100D000ED00E0CD010010DC
:100FB000F0B5DE4657464E464546E0B50C0083B0D8
:100FC000EFF3108972B6594A1368002BFCD0BFF3B7
:100FD0005F8F574B9A68030010339F00D559554ACD
:100FE0009046954232D0A54243D0534EAA1B2F2A99
:100FF0002CD80122824092465146504A1268114034
:10100000019151464E4A1160BFF35F8FEFF30582A5
:101010009346002A33D101232A009A4393689C42C5
:1010200008D178E04B005B189B00F3189968A14247
:101030002AD01A00062151560029F3DA019B002B11
:1010400019D052463F4B1A603C4B1A60384B9B6894
:10105000DD51BFF35F8FBFF35F8F0022334B1A6008
:1010600089F3108803B03CBC90469946A246AB4633
:10107000F0BD1500EAE75246314B1A60E6E79342AD
:10108000C9D001F035FAC6E706215956002922DBFE
:101090004A005018800034188046A0689860E079B3
:1010A000D871062020569871A0797F2824D8A4886A
:1010B000F01A6405241544440019E0240005400D8D
:1010C00024022043988052181F4B9200B6181A78B9
:1010D0001970B271B2E7594600290FD1FF319171F1
:1010E0001A49918018490A789A71194A9B1B5B41E9
:1010F0005A43120D0A70A1E71648E3E7164A17494A
:10110000D21A083A5002400D0143998014495208FE
:101110000A43DA8092E70621515613000029B7DA14
:101120005A46002AEAD14546DCE7C046240100D0F1
:1011300000ED00E0CD0100101002002000E100E011
:1011400080E100E080E200E0E110022001BDFFFF4D
:10115000AAAA000001BD00004A02002000F0FFFF23
:1011600000F8FFFFF0B5EFF3058101240443EFF32E
:10117000108672B6214A1368002BFCD0BFF35F8F34
:101180001F4B05001F4AED1A6D416A43120D1E4D9B
:101190008900AF6852B27F58A7421CD00621595629
:1011A00091421CD012215956914222D01E215956EB
:1011B000914220D02A2159560324914210D0134B3A
:1011C00019781A708171BFF35F8F00220B4B1A6080
:1011D00086F31088F0BDAB680D4C5C50EFE700243F
:1011E0006100091989005B18FF21997109499980EB
:1011F000E5E70124F4E70224F2E7C046240100D029
:1012000010020020AAAA000000ED00E0E110022078
:10121000CD01001001BDFFFF054B064A1360064AD1
:10122000136053609360D36013615361936170479F
:101230008080808000E400E004E400E0024B9C46F3
:1012400061448900016070474000003410B504001B
:10125000FFF75EFE01002000FFF7F0FF01235B4275
:101260006360BFF35F8F10BD10B50400FFF750FE41
:1012700001002000FFF7E2FF01235B4263600023CF
:101280002372BFF35F8F10BD83680B4810B584468F
:1012900061446244090112019A18591854684B6854
:1012A00001209C4201D802D00020C0B210BD1268BB
:1012B0000B689A42F9D8F7E7FFFFFF0F074810B510
:1012C0000268EFF3108172B61368002BFCD0BFF3F5
:1012D0005F8F03F0FBFE0020002110BDDC0F00201B
:1012E000F8B5574645464E46DE46E0B599460CAB46
:1012F00019780DAB1B78050090469A4607680029BF
:1013000012D1BE7B002E45D074003B68A419033C6B
:101310001B195A783100BA73002A00D1FA730022DF
:101320009A705A701A7003E00E004C006418033C67
:101330002C4B00229C46AB6861449C464346090105
:1013400061440B604B464B600A9B8B600B9BCB60F0
:101350003B681B199A705A701A707B7B9B46002B56
:101360002CD032005946B8687B6898473A68002804
:1013700017D05B4658465B005B441419033BA070D2
:10138000D118D35C002B00D063705B460E707B736A
:10139000B34514D030003CBC90469946A246AB46BB
:1013A000F8BD5B465B005B44033BD3189E7011198C
:1013B000125D002A00D05A705B460B707E73424665
:1013C0004B46287D00F00CFB041E06D05346002B34
:1013D00003D13100286800F051FD0E9B002BD9D0BD
:1013E0001C70D7E7FFFFFF0FF0B5DE4657464E46AD
:1013F00045460023E0B58BB00893664B8200D45875
:1014000000239B46099000F09BFA626806000F00DB
:10141000EFF3108572B61368002BFCD0BFF35F8F1B
:1014200023689C465B7B9946002B68D0A2685A4B88
:1014300090464B441B01984443461A685B68100071
:101440001900801BB941002963DD099800F0C8FA32
:1014500000230022984600230692079300239A4611
:101460006368BFF35F8F5A461A6085F3108853464E
:10147000002B08D10028C6D10BB03CBC9046994641
:10148000A246AB46F0BD089B414618024B461843A6
:10149000D047626806000F00EFF3108572B613683C
:1014A000002BFCD0BFF35F8F002F4FDB33003B439B
:1014B00002D02369002B60D12368DA7B002A07D091
:1014C00051008A1819688C4649466244033A5170A3
:1014D0009A7B002A01D14A469A734A46DA734B46F0
:1014E000E168013BCA5C0132CA545B462361636810
:1014F000BFF35F8F5A461A6085F3108883E7002395
:1015000000229846002306920793002300209A4663
:10151000A6E7002901D1002897D10021604600F0FC
:101520000BFC43461A685B680692079343469B6828
:101530009A464346DB689846E3684B44013B1B7878
:1015400008931B0203432361002089E72369002BD2
:10155000B2D0069A079B921BBB41002B15DB594664
:10156000049101210391494602914146019151465E
:1015700020000091FFF7B4FEB7E700F0E1F9320078
:101580003B0012184B41002BE9DA0122034B524277
:10159000E5E7C0462C0D0020FFFFFF0FFFFFFF7F98
:1015A00010B5144C6368002B04D00A211248FFF7D1
:1015B00045FE10BD2300114A1021206800F0D6FA24
:1015C000032000F0B1F9032000F07CFA03200C495D
:1015D00000F0C0F9FFF79CFC0A4B9C4603232375DF
:1015E000D0231B061B6860446375074B8000606056
:1015F000DC60DAE758020020DC0F002089120010BE
:10160000E9130010400000342C0D0020F0B55746BF
:101610004546DE464E46E0B585B0019310AB1B78DB
:1016200000270393002380469A46009243465A6857
:10163000EFF3108972B61368002BFCD0BFF35F8FF5
:1016400043461D68AC7B002C4FD066002B683619D2
:10165000033E9B195A78AA73002A00D1EA734246C6
:101660009F705F701F7092684A4B94460099019A70
:10167000E3181B01634419605A600E9A9A600F9A2E
:10168000DA602B689B199F705F701F706B7B9B46A5
:10169000002B46D022001900A8686B6898472A687A
:1016A000002831D05B4658465B005B449619033BEB
:1016B000B070D118D35C002B00D073705B460C70F7
:1016C0006B735C452ED04346DB681B19013B1878D1
:1016D00043465B68BFF35F8F1F6089F310885346F2
:1016E000002B2ED10002204307E05B68BFF35F8F21
:1016F0001C6089F310880120404205B03CBC904634
:101700009946A246AB46F0BD5B465B005B44033B9B
:10171000D3189C709119925D002A00D05A705B46D4
:101720000B706C734346187D009A019B00F058F9CA
:1017300082460028C7D043462100186800F09EFB6F
:10174000C1E7039B002B23D00E9B00200F999847E5
:10175000030004000D000B431AD000290ADA009A96
:10176000019B121BAB4100920193002B0ADB039BF0
:101770009A465BE700F0E4F824184D410094019587
:10178000002DF4DA0123044C5B4200930194EEE750
:101790000020B2E7FFFFFF0FFFFFFF7F70B5426839
:1017A0000400EFF3108572B61368002BFCD0BFF372
:1017B0005F8F2068CAB2437B93420AD0FF230B405D
:1017C0005E00F3180668B4466344033B9B78002B25
:1017D00013D0E668FF23B4460B406344013B090A7B
:1017E0001E78C9B28E420DD000206368BFF35F8FB0
:1017F00000221A6085F3108870BD22698A42F3D1F5
:101800002361F1E7110000F039FBEEE770B5EFF36B
:10181000058305000C0084B0002B0FD0104B002076
:10182000596A8C4203D89B6A0130AB4201D304B0A1
:1018300070BD641A611E8C41E0B2F8E7094E029354
:101840000193094B0200009330000B00FFF7DEFE0E
:10185000011EE3DD20BF3000FFF7A0FFDEE7C0463A
:101860000040054058020020BD120010F0B5EFF313
:101870000582D6464F4646461000C0B51038EFF3F5
:10188000108872B6214C2368002BFCD0BFF35F8F09
:101890000123190081401E4D1F006963AA461D4D9A
:1018A00029601D4D2E78AC463500C5402F402B4297
:1018B00015D05346194D5F6A83005D59AF4218D366
:1018C000174A8E439B5862461670BFF35F8F002203
:1018D000226088F31088002B06D0984704E0BFF3FD
:1018E0005F8F276088F310881CBC90469946A246FB
:1018F000F0BD0C4B92009C46624413681360BFF32A
:101900005F8F0023236088F31088EDE7280100D063
:10191000004005403C700540E2100220E00F00202E
:10192000780C0020D03F054010B50100024A034862
:10193000FFF7BCFA10BDC046087F0010E01002207F
:10194000034B596A0A00986A596A8A42FAD1704769
:101950000040054070B504000D00EFF3108672B62C
:101960001A4A1368002BFCD0BFF35F8F002D1BD0E9
:101970002000FFF7EBFA164981420AD02000FFF75A
:10198000EDFA01212000FFF7CFFA0123A340114A0D
:101990001360114BA400E550BFF35F8F00220B4B87
:1019A0001A6086F3108870BD0B4BA200D55001223F
:1019B000A2400A4920000B7893430B700449FFF7BB
:1019C000F7FA00212000FFF7AFFAE5E7280100D081
:1019D0006D18001038600540780C0020E2100220DD
:1019E000F0B54F46D6464646C0B50700304C616A52
:1019F0000D00A66A616AA942FAD18B4208D805D0C7
:101A000001201CBC90469946A246F0BDB242F7D9CF
:101A1000EFF3108972B6274801680029FCD0BFF3A4
:101A20005F8F01252449BD408C460978204C0E006B
:101A30002E438846F1B28A46614650460870391DE9
:101A40001E48890065630A51B9000B50216A0020C5
:101A5000294219D0616A0800A66A616A8142FAD1F6
:101A60008B4219D801D1B24216D8C2451DD0104BB5
:101A70001F201D625D6301230740BB40104A1E38D2
:101A80001360634642461A70BFF35F8F0022094B12
:101A90001A6089F31088B4E70020BFF35F8F00223B
:101AA000044B1A6089F31088ABE70120ECE7C046CD
:101AB00000400540280100D0E2100220E00F002085
:101AC00080E200E010B5EFF3108472B60A490B68AB
:101AD000002BFCD0BFF35F8F01238340074A0848E7
:101AE000136202789A430270BFF35F8F00230B608A
:101AF00084F3108810BDC046280100D00040054086
:101B0000E210022070B505000E001400002924D058
:101B1000002A24D080686B689847296800280ED076
:101B200063001B197200033B9219CB18033A9E7095
:101B300088188A5C002A14D1047030000EE073000B
:101B40009B196200033B1219CB18033A9C7088184A
:101B50008A5C002A00D05A700670200070BD080010
:101B6000FCE75A7004703000F8E7C04630B5836077
:101B70000023CCB243730133047342608373C47394
:101B80000D000068012C06D9421C0133DBB2137032
:101B900003329C42F9D1FF2129404B005918002300
:101BA00040180338437030BDF8B5CE4647460600AE
:101BB0000C0080B5002907D04D0003686D18033D67
:101BC0005A195778002F04D120000CBC9046994632
:101BD000F8BD7900C91903398846434459788946C4
:101BE00000215970517073683A002100806898474D
:101BF0003368002814D042469A18947059195B5DD6
:101C0000002B00D053700F70270049463000FFF7BB
:101C1000CBFF390002003000FFF774FF0400D3E768
:101C2000424641465D19AF709A185B5C002B00D0AC
:101C30006B701470E9E7C046F0B557464546DE467E
:101C40004E46E0B50D006B0001685B19DF1E040015
:101C5000C85D83B00192CA19002850D043001B18F8
:101C6000033BCB185E78B446002E1AD1019E002E9D
:101C700042D0E67B002E04D073009B19CB18033BA7
:101C80005D70A37B002B00D1A573E57300282FD1D5
:101C90000023537003B03CBC90469946A246AB4625
:101CA000F0BD72006244033A89184A7890460022D7
:101CB0004A7091465A70010032002000FFF722FF5F
:101CC00043468246002B07D05B0021684344033B18
:101CD000CB185A78002A16D1424651462000FFF709
:101CE00011FF2168019BCA19002BC2D10028CFD057
:101CF00043001B18033BCB1800219970C8E7019BD8
:101D0000002BB6D1C4E75000801803380918487872
:101D1000834648464870587041462000FFF7F2FE5F
:101D2000594680462000FFF73FFF41460200200051
:101D3000FFF7E8FE8046CFE7F0B54E464546DE4663
:101D40005746E0B5467B040075000068AD19033DB9
:101D500083B00191415D4219002952D04B005B18BC
:101D6000033BC3185F78BC46002F1CD1019D002D9A
:101D700044D0E57B002D04D06B005B19C318033BF6
:101D80005E70A37B002B00D1A673E673002931D1CE
:101D9000002330005370617303B03CBC90469946F9
:101DA000A246AB46F0BD7A006244033A80184278FE
:101DB00093460022427091465A7020003A00FFF785
:101DC000A1FE5B468046002B07D05B0021685B4488
:101DD000033BCB185A78002A17D15A4641462000B7
:101DE000FFF790FE019B010020684219002BC0D133
:101DF0000029CDD04B005B18033BC318002098701E
:101E0000C6E7019B002BB4D1C2E75000801803380D
:101E1000091848788246484648705870594620004C
:101E2000FFF770FE53468346002B07D05B00216806
:101E30005344033BCB185A78002A06D159465246E0
:101E40002000FFF75FFE8346C7E750008018033885
:101E5000091848464F784870587051462000FFF7DF
:101E600051FE390081462000FFF79EFE49460200E0
:101E70002000FFF747FE8246E0E7C04670B5040049
:101E800000292CD0437B8B422ED005684800401897
:101E9000033828188278002A21D053009B18033B6E
:101EA000EA5CEE188A4202D11BE0002A08D05300F7
:101EB0009B18033BEB185A788A42F6D142785A7045
:101EC00000230122837043702000FFF7B5FE617B81
:101ED00002002000FFF716FE6073012000E00020E2
:101EE00070BD43783370EBE701221900FFF7A4FEC1
:101EF00060730120F4E7C046F8B5040006200D0029
:101F000000F0CAF9002845D02B4B2C49E3185A425F
:101F100053418022D20394465B421340284A6344D3
:101F20001360284A136018008A689043FBD1224B43
:101F30008021E3185A425341234A5B00490006209E
:101F4000995200F0A9F92900C00001F06FFEC30901
:101F500021D140270122260080256262A36200234E
:101F60002C36AD0135432B60062000F095F9390081
:101F7000800001F05BFE6023E26A53406E221A404B
:101F800080235B0133431A60104B236310232B60C3
:101F90000D3BA364F8BD0E4A934203D900230D4FB5
:101FA0000D4AD8E77F221040013040089F011A00F7
:101FB0003F180300CFE7C0460080FCBF00C00040D0
:101FC00000E0004000F00040E410022001030000A7
:101FD000FEFF0000C0FF3F00FFFF000030B50C20F7
:101FE00083B000F0B3F9FEF759FF00280ED0944BF0
:101FF000944A1A605A609A60DA601A615A619A616A
:10200000DA611A62904A5A6203B030BD8F4CA06701
:1020100000F0A4F901228E4B1A60636C012BFCD1F5
:1020200003228C4B1A60894A936B012BFCD101333C
:102030000121894A89480093043300F033F90523CC
:10204000874A00930121874800F02CF9864B5A6893
:10205000FF2A02D8802252005A608022784C7D4BA1
:1020600021691201804D1A60002905D0606901F0D4
:10207000DDFD01300138FDD1E0217B4B02201A68E3
:102080001140802252012A431160196848400321FF
:102090000140116004219A681142FCD08022802105
:1020A00092012A4309011160802252005A606F4B4D
:1020B00023616F4B5968FF2900D85A6003226C488E
:1020C000634B01211A60020093681942FCD0E0259D
:1020D00013681D4080235B0103431D6012684A4062
:1020E0000321114019600221614A93681942FCD012
:1020F000802380219B0103430901196080215D4BEE
:102100004900516063615C4B5A68FF2A00D85960EE
:1021100080225A4BE1691201574D1A60002905D0FF
:10212000606901F083FD01300138FDD1E0225249A0
:102130000B681A4080235B012B431A6080238022A6
:102140009B012B4312011A6080223E4B52004A60D1
:10215000E3614B4B5968FF2900D85A608022494BF4
:10216000216A1201464D1A60002905D0606901F00C
:102170005DFD01300138FDD1E02241490B681A4074
:1021800080235B012B431A60802380229B012B4319
:1021900012011A60802380225B004B60294BD2021F
:1021A0002362394B5968914200D25A608022374BE2
:1021B000616A1201344D1A60002905D0606901F08E
:1021C00035FD01300138FDD1E0222F490B681A405E
:1021D00080235B012B431A60802380229B012B43C9
:1021E00012011A608023DB024B60174B6362284B9D
:1021F0005A68FF2A02D8802252005A608022254B5A
:10220000A1691201224D1A60002905D0606901F010
:102210000DFD01300138FDD1E0221D490B681A4047
:1022200080235B012B431A60802380229B012B4378
:1022300012011A6080235B004B600E4BA361E3E642
:10224000940C0020006CDC021BB7000000800040F2
:102250003CB0004030B00040002F68590080024080
:10226000008C864700C0024030800040001BB70051
:102270003C800040405973075480004054B00040F7
:102280006080004060B000406C8000406CB0004056
:102290004880004048B00040014B8000C058704763
:1022A000940C0020F8B504000C2017001D000E004F
:1022B00001F0BCFC4101091A8B01591AC900091827
:1022C0008901380001F0B2FC069A2B041203134373
:1022D0002268002A21DB194AA21851424A41802172
:1022E00049018C4652420A40154962440A60154928
:1022F0000A60154917008D68AF43FBD1C021221D2C
:102300008901114321222660A0600A602268002A08
:10231000FCDAE36008230B60F8BD3F2221680A4025
:10232000B242D8D1A2681205120D8242D3D1EE2159
:10233000E268C9020A409A42CDD1EDE70040FDBFF4
:1023400000E0004000F0004000C000408023024A4E
:102350009B000343D362704700800540AA23064ACE
:102360001B0113602F230549D360054B1960536887
:10237000002BFCDA7047C0460040024000B0FA0073
:10238000006002402C4B2D4A70B51A602C4A2D4B30
:102390002D491A6010008B689843FBD12B4C2C4BB5
:1023A0009C4209D2013B1D1BAD080135AD002D1922
:1023B00008CC9847AC42FBD1FFF710FE254A214BD1
:1023C0001A60214A9368DB018033FBD14022224B03
:1023D000224C234D9A675A671A67DA66AC4208D2D4
:1023E00023682000002B21D00C34FEF73DFFAC42C7
:1023F000F6D31C4C1C4DA168C022280002F0CEFA76
:10240000A560FEF777FDFEF707FFFFF7C9F8174C49
:10241000174B9C4209D2013B1D1BAD080135AD0095
:102420002D1908CC9847A542FBD170BD0834FEF7A2
:102430000DFFAC42D4D3DCE700E00040BFCDFBFE93
:10244000FE7F3C0000F0004000C00040100B002068
:10245000200B0020FFFFFF0100F00140000B0020D7
:10246000100B002000ED00E000000020200B0020F9
:10247000280B002000BEFDE7094A03001068002871
:1024800005D00849C3188B4207D813607047064827
:102490000449C31810608B42F7D901204042F5E788
:1024A000080D0020000004202C13022010B5FFF7B7
:1024B000E1FFC0460FB400B5084883B002F094FBBA
:1024C000049B002B07D005A91800019101F038FBEF
:1024D000034802F089FB0120FFF7CCFF2C7F00109E
:1024E0003C7F001010B50148FFF7E4FF407F00106B
:1024F00010B50148FFF7DEFF507F00109A4200D26E
:10250000885470477047C046F8B557464E46DE4679
:102510004546E0B51F000A9B05009B460D9B0E003B
:10252000914692469B0718D10B9B0C9A934214D26A
:1025300013000B9AB8469B1A4B444C460F000600FA
:102540001D0022004346013439002020B047AC4230
:10255000F7D1AA4635003E0047460B9B002B38D0EA
:102560009A441C00D04653461A1B5B46013C185D3A
:1025700031003B00A847002CF5D10D9B9B0721D5CE
:1025800043464A469C1A0C9BA3421BD93A009A46E2
:102590004F469146E2194B46310020200134A847AE
:1025A0005445F7D343460C99DB1B0133B94600224F
:1025B000994203D343464A1E4A44D21A43469046A0
:1025C0000133984440463CBC90469946A246AB46EF
:1025D000F8BDD046D1E7C046F0B54F464646D64690
:1025E000C0B584B098460EAB1B78129F99469446AE
:1025F0000D9C109B119EBA0725D4002E69D19C42D8
:1026000000D3C2E001223A4092461F2C00D9BBE021
:102610000C9A551E302201E0202C03D001342A559B
:10262000A342F9D85246002A0DD0B4420BD21F2C37
:1026300062D80C9A551E302201E0202C5CD0013467
:102640002A55B442F9D1FA0635D57A055DD4002C65
:1026500057D10F9B102B00D17CE00F9B022B00D198
:102660008DE030230C9A012413704B46002B27D0A9
:102670002D230C9A135501340C9B6246009303974B
:10268000434602960194FFF73FFF04B01CBC9046FE
:102690009946A246F0BDBB0663D4202CECD00C9B1F
:1026A0001A19013478231370202CE5D030220C9BAA
:1026B0001B191A700134202CDED04B46002BD7D1C9
:1026C0007B0735D43B07D7D520230C9A135501340B
:1026D000D2E7012215003D40AA463A4220D04A46A0
:1026E000002A2AD10C323A4227D19C429DD21F2C7B
:1026F00000D88DE7202E19D92024FA06BCD57A05FA
:1027000003D4A3421BD0A64219D00F9B102BC2D0DA
:10271000022BC9D1202CAFD00C9B1B19013440E0F7
:102720009C4200D38FE71F2C00D871E720248AE752
:102730002B230C9A135501349EE7013ED5E7631E07
:10274000012C00D185E70F9A102A20D0022A25D02B
:102750001C00ABE7BB060DD478230C9A0124137040
:10276000A4E7202C00D187E758220C9B1B191A7074
:10277000013499E758230C9A0124137096E70C9AB8
:1027800060330124137091E7202400265BE7023CAC
:10279000BA06E9D40C9A12191C0083E70C9A9246E7
:1027A000534462221A707FE710B5002800D110BD93
:1027B00002F0CEF9FBE7C046F0B5DE465746454687
:1027C0004E46E0B59BB09B46249B0A909846259BBD
:1027D0000B910C924046424619009A4601F0EFFCDC
:1027E000002800D0E8E00122404651467F4B52428B
:1027F00001F0E0FC002800D0DEE001224046514616
:102800007B4B524201F0C0FC002800D0D4E00022F3
:1028100000234046514601F0B7FC002800D0CAE131
:102820005346C14609938023289ADB001A400E9232
:10283000289A1A4201D1062326934C46099B23432A
:1028400000D0D9E0289B002600271B0500D4AEE16C
:1028500000230D93269B19000D9B994200DCB0E1EB
:10286000C81A431E26938023289ADB001A430023AC
:10287000002528920D93279B0024AB4200D95C1BB6
:102880000223289A1A400E92289A134203D06B42D0
:102890006B415B421C400D9B002B07D048460999B9
:1028A00032003B0001F00FFC814609910022002319
:1028B0004046514601F068FC002805D08020000603
:1028C0008446099961440991289A4A4B0A9E13400B
:1028D0004A460493269B0B990293099B039400920A
:1028E000019330005B460C9A884600F0A1F9040081
:1028F000002D72D0289B220098061F23C0179843F2
:1029000041465B466530B0470D9B671CDA179C1843
:10291000DB0F98466B1E99460025544001E0202DA0
:1029200013D00AAA94461F23200063440A210135CC
:102930005E1901F07BF93031317020000A2101F07D
:1029400075F926000400092EE9D8052306934B46A5
:102950000593002304930A33039343463A000A9EE7
:102960000B9F029312AB009339005B463000019538
:10297000FFF732FE0E9B0400002B2ED00C9B279AF3
:10298000C51AAA4229D93C008146984617004346F9
:1029900021005A1920205B460135B047AF42F6D8D6
:1029A0004C460C992798631A01330022984200D3B1
:1029B0000AE10134141910E0289B42460493279B36
:1029C0000B990393269B0A98029353460092019316
:1029D0005B460C9A00F02CF9040020001BB03CBCB4
:1029E00090469946A246AB46F0BDC046FFFFEF7F3A
:1029F000FFFFEFFFFFF7FFFF764B099D9C46680046
:102A0000400D604401F0EEFB734A744B01F079FB1A
:102A1000734A744B01F04EFB2B03734A1B0B1A4392
:102A200006000F00714B110048460022099501F085
:102A300038FB6F4A6F4B01F064FB02000B00300063
:102A4000390001F037FB01F0E5FB0D9001F0CAFB06
:102A5000694A6A4B04000D0001F053FB0022684BE9
:102A600001F028FB01F0D6FB664A0600664B200009
:102A7000290001F046FB040030000D000F9601F024
:102A8000B1FB624A624B01F03CFB02000B002000EC
:102A9000290001F006FB02000B0006000F0001F008
:102AA00030FB320004000D003B003000390001F023
:102AB00001FB002210901191564B2000290001F0DB
:102AC00002FB0022544B01F0F5FA02000B0020003B
:102AD000290001F0F8FA0022504B01F0EBFA020055
:102AE0000B002000290001F0EEFA0D0080213200D9
:102AF0003B000400C905002001F0D3FA02000B00DE
:102B00002000290001F0D6FA02000B00109811995C
:102B100001F0D9FA0022344B01F0CCFA404A0F9B65
:102B20009446634400221B0501F0EBFA06000F00F7
:102B300002000B004846099901F026FB00280AD044
:102B40000D9B3000013B39000D930022324B01F008
:102B5000BAFA06000F00C6250D99330063318D4285
:102B6000AD4128996D420435090500D483E63B4305
:102B700000D16FE6099C484621002A4A2A4B01F001
:102B800011FB002808D0002248462100274B01F005
:102B9000FBFA002800D05DE6269B002B00D16AE6F8
:102BA0000E9B5A1E9341269AD31A269363E600235E
:102BB00004250D935FE680231B065344C146099309
:102BC00031E6002326934EE60A008446013A624429
:102BD000121BEEE601FCFFFFFB799F501344D33F2D
:102BE000B3C8608B288AC63F0000F03F0000F83F62
:102BF00061436F63A787D23F71A379094F930A405E
:102C00000000E03F1655B5BBB16B0240EF39FAFE4C
:102C1000422EE63F00002C400000244000001840F7
:102C2000FF0300002D431CEBE2361A3F80842E4147
:102C3000F0B54E46DE4657464546E0B597B0994654
:102C4000209E219F229B8346984607910C923B0031
:102C500032003000390001F0B2FA002800D0C1E1A2
:102C6000012230003900CA4B524201F08DFA00288F
:102C700000D0E0E0012230003900C64B524201F0A2
:102C800099FA002800D0B6E0002230003900C24B8B
:102C900001F090FA002800D098E0002230003900BE
:102CA000BE4B01F071FA002800D08FE00022002313
:102CB0003000390001F068FA002800D0B0E00023AD
:102CC0000D93249B5B0501D40623984608AB9C46D4
:102CD0001722002430234146624404E00134135596
:102CE0000139202C01D00929F8D888463000390054
:102CF00001F090FA4346DA00A94B05009B181A68C8
:102D00005B680892099301F06DFA02000B00300035
:102D1000390001F0C6F9089A099B01F0F2F90A900E
:102D20000B9101F09BFA824601F058FA02000B0069
:102D30000A980B9901F0B5F900229A4B0A900B9171
:102D400001F038FA002800D1C0E001239C46E2449B
:102D5000504601F043FA02000B000898099901F06F
:102D600019FA002802D000239A4601354346002B69
:102D700069D008AB17269C4608956644554614E072
:102D800001235B4243440A2128009A4600F04EFF8B
:102D9000013430313719397028000A2100F046FF1C
:102DA000092D00D8D5E0D0460500202CE8D103231A
:102DB000249A1340012B00D100E10EAB9846249BCE
:102DC00001940393239B029343461EE0249B5846A1
:102DD0000493239B00960197039343460C9A029316
:102DE00007994B46FFF7E8FC17B03CBC9046994664
:102DF000A246AB46F0BD249B5B070ED403226A4B70
:102E000024990192039123990291009358464B46CD
:102E10000C9A0799FFF778FBE6E70422634BEFE78C
:102E20003B0032000020002101F03BF901230600A5
:102E30000F000D9345E7249B0393239B02930423E8
:102E400001935B4BE1E7280001F0CCF902000B0095
:102E50003000390001F025F9524B002206000F0026
:102E600001F092F90EAB984600280AD100223000FA
:102E700039004C4B01F09EF9002802D1EB0700D538
:102E80000135202C32D008AA944617232800634429
:102E90000A2101341E1900F0A1FE303128003170E2
:102EA0000A2100F09BFE051EEBD10323249A134058
:102EB000012B00D191E01F2C00D980E70D9B002B46
:102EC0003BD02D2342461355013478E700220A985F
:102ED0000B99344B01F058F9002800D046E75346CF
:102EE000002B67D101239C46E2443FE70323249A49
:102EF0001340012B00D062E7239B002B00D15EE73B
:102F00000D9B002B03D1249A0C33134202D0239B38
:102F1000013B2393239B9C42CDD208AB9C461722B6
:102F2000302362441F2C06D82399013413558C4258
:102F3000C1D0202CF8D1202441E7249B5B0721D469
:102F4000249B1B0700D43AE7202342461355013443
:102F500035E75746089D202C37D0220030214046C7
:102F6000002F08D00132B154202A43D0D3431B197B
:102F70001B18002BF6D10EAB98462E234146541C4D
:102F80008B547EE72B2342461355013417E7C04686
:102F9000FFFFEFFFFFFFEF7F65CDCD4165CDCDC1D9
:102FA000588100100000E03F5C7F0010607F00103F
:102FB0006C7F0010DB0700D4D8E693E7239B002B3F
:102FC00000D1FAE60EAB98469AE70323249A134001
:102FD000012B00D0F1E60EAB9846239B002B00D1CD
:102FE00069E78DE7249B0393239B029303230193BB
:102FF000064B0AE70323249A20241340012B00D018
:10300000DBE6239B2024002BDCD1D6E6687F001072
:10301000F0B5DE464E4657464546E0B59FB01C002B
:10302000289B93460993CF4ACF4B894608901A6054
:10303000002900D116E2002320789A46002800D10A
:1030400018E226001D004C460AE02A006F1C5B4671
:10305000089D2100A8473D000136307800287AD02D
:103060002528F2D110239A46083B9946043B9846FE
:10307000023B00219C46721C107816000300203B86
:10308000DBB2102B03D8B94F9B00FB589F460300BF
:10309000303B092B3CD900230A932A2800D171E048
:1030A000002398462E2847D00300683BDBB2122B42
:1030B0001FD8AF4A9B00D3589F46012301321943C2
:1030C000DAE7634601321943D6E743460132194332
:1030D000D2E7534601321943CEE74B46013219433A
:1030E000CAE770786C2800D1BFE280235B001943E7
:1030F00001360300253BDBB2532BA6D89D4A9B002B
:10310000D3589F4680235B00707819430136F0E75F
:1031100000270300B800C01901364000C0183378FA
:1031200030381A00303A0700092AF3D90A901800FB
:10313000002398462E28B7D180237078DB001943EE
:103140000300303B721C092B00D895E12A2800D1DE
:10315000A6E11600A8E7A146AA462C00D34503D84D
:1031600001235B425B449A465B4652464946002037
:10317000089DA84720001FB03CBC90469946A24637
:10318000AB46F0BD099B40CB0A96002E03DB50787E
:103190000993561C84E72838014370420A9009932A
:1031A0005078561C7CE7782800D1D4E1582800D10B
:1031B00068E26F2800D152E3622800D1D8E11023E1
:1031C0000A009A430B92692801D000F0A2FC0A235E
:1031D0000C934B0500D4D5E101230B9A9A430B9233
:1031E000692800D1CEE1642800D1CBE10B9A80237D
:1031F00011009B0019408A461A4200D032E3802316
:1032000011005B00194089461A4201D000F002FC0F
:1032100013005B0600D510E30B9B1B0601D400F0E6
:103220006EFC099B04CB1204120C92460993534680
:10323000002B00D064E30B9A1033110099430B91DB
:10324000520500D45CE3002399460B9B06930A9B2E
:103250000593434604930C9B03930023DEE27078AE
:10326000682800D107E280230136194341E7802313
:103270009B007078194301363BE7462800D174E182
:103280000722099B0491073393430A9A190003927A
:10329000424602920CC908980092019309912A00B3
:1032A0005B462100FFF7C4FC01360500D5E6099B0B
:1032B0001A0008CA9146002B00D105E121221143D2
:1032C0008A460EA884461F216144099500220F27D3
:1032D000A4460D0002E0202A0CD00B003C001C404C
:1032E00020003730092C00D807380132A8541909BA
:1032F0000F2BF0D86446099DF0E08B0700D4D1E194
:10330000099B2A0099466B1C98464B4601CB21002D
:103310009946089F5B46C0B2B8470A9B9C466544E5
:10332000012B00D890E2B2465E464746A846089D6B
:103330003A003300013721002020A8474745F7D144
:10334000B3464B4656463D000993013685E62A00B2
:103350006F1C5B46089D21002520A84701363D00D3
:103360007BE6C046113000100C0D0020747F001069
:10337000B87F001004800010099B04CB9946434697
:103380000992002B00D097E013789C46002B00D1C7
:10339000B3E302235B425A1C099B924618000A9F22
:1033A0000B92504402E0834200D169E15A78013324
:1033B000002AF8D1099A0A979B1A0B9380230A00D6
:1033C000DB001A400C92194204D00B9B434501D9F3
:1033D00043460B9302231A000A400D920B4200D180
:1033E00084E16046002823D00C9B002B00D124E10F
:1033F000A844C246099B57465B1B9846089BB246A9
:103400002A0026005C469B4609E023003100551C3B
:10341000D8474346585D002800D13FE12A00974233
:10342000F3D1A3463D00340056460D9B002B69D0D6
:103430000B9B0A99A846994264D98C466544ED1ABB
:10344000089B47469A46B04626005C463A00230051
:10345000013731002020D047AF42F7D1A3463400D6
:1034600046464FE0D24B2078089300239A46002826
:1034700000D0E6E5002471E6434606000A9F980066
:10348000C01801324000801916780300300030382F
:10349000303B0928F3D93000984616000A9703E616
:1034A000099B023604CB9046D2434046D2171040C7
:1034B000804609933078F7E513789C46002B00D1BD
:1034C0001AE34346013B66E710220800904311329D
:1034D000104382460022490500D4F2E65346069383
:1034E0000823059343460493102303930023029378
:1034F00016AB019200932A005B4621000898FFF763
:103500006BF805004B4601360993A6E5202302001F
:103510009A43472A04D180231B011943022398436D
:10352000452801D1202319430722099B0491073321
:1035300093430A9A19000392424602920CC90898D2
:103540000092019309912A005B462100FFF734F9AC
:103550000136050081E510230C930C230A009A43E1
:103560000B924B0500D43BE636E62023194387E651
:1035700002230C930B910B996428EED10B9B5B05F6
:1035800000D529E60B9A802311009B0019408A463A
:103590001A4200D0CEE0802311005B00194089461A
:1035A0001A4200D0DBE113005B0600D51DE10B9B46
:1035B00009991B0600D499E208C91BB2D8171A183A
:1035C000424092B209919246DA0F1292002B09D131
:1035D000802310220B99DB000B4091430B91002BB1
:1035E00000D012E10B9A6123920600D541230EA967
:1035F0001F228C46DBB262440A3B57461395A24613
:103600004D460C9CB1460D9316000AE03033DBB2F8
:1036100001357355A74200D21CE1202D00D119E1DC
:1036200007002100380000F001FBCBB20929EDD9D9
:103630000D9A94466344DBB2EAE7099B5F465B1B45
:1036400098460A9BB3469A462600089C2A003B00EF
:103650003100A04743460135585D0028F6D1534656
:1036600034000A935E46BB46DFE6C0239B00B07879
:10367000194302363DE5C023B0781943023638E5D8
:103680000A979BE60C230A009A4314331A4310232B
:103690000B920C934B0500D4A8E59DE5A34634009E
:1036A0005646C2E60A9A012A00D82EE26B1E9F18DF
:1036B000089BB046994626005C462A002300013547
:1036C00031002020C847BD42F7D1A346340046460A
:1036D000099B3A0001CB210098467D1C5B46089F60
:1036E000C0B2B847434601360993B6E40B9A0A982C
:1036F000531C904200D80AE243199B1A1F00089BF2
:10370000B24626005C469B462A0023000135310064
:103710002020D847BD42F7D10A9BA34601330B9323
:10372000099B34001B7856469C466046002800D012
:103730005AE6E7E60722099B073393430132944692
:103740009C4462465F6809921A68FB1710931193B4
:1037500010981199030053400E930B007B400F9378
:1037600094460E9A0F9B121A8B410E920F93FB0FE9
:103770006246129300233A439A463DD00B9A612346
:10378000920600D541230022DBB20EA90A3B8C46EB
:1037900091460D9343461F326244139515964D464C
:1037A0000E9E0F9FA14690460C9C14930FE0C046BE
:1037B000052500103032D2B2434601355A55BA457C
:1037C00000D17CE1202D00D17CE106000F00220019
:1037D00000233000390000F067FAD2B2092AE9D993
:1037E0000D9B9C466244D2B2E6E7FF23099904C9C7
:1037F00013401A000991E6E60B9A10331100994321
:103800000B915205BAD5002399460B9B06930A9B50
:103810000593434604930C9B0393129B02934B46E0
:10382000019316AB2A00009321005B460898FEF72F
:10383000D3FE01360500FFF710FCFF22099B02CBE7
:1038400011408A460993F2E44B46454609930136F6
:10385000FFF703FC4E465446A946139DD5E70823BF
:103860000C9387E60722099B073393430132944662
:103870009C44624609921A685B6810009A461300DD
:103880005246134307D10B9A1033110099430B9101
:10389000520500D5D7E40B9A6123920600D5412347
:1038A0000022DBB20EA90A3B8C4691460D9343469B
:1038B0001F32624457461295A2464D460400B14657
:1038C00090460C9E13930DE03032D2B24346013540
:1038D0005A550023BB4200D1FDE0202D00D1FDE070
:1038E00004000F00320000232000390000F0DCF952
:1038F000D2B2092AE8D90D9B9C466244D2B2E5E7D0
:103900000B9A6123920600D54123DBB20EA90A3B34
:103910001F228C460D9323006244544612951700D3
:103920004D469A46B1460C9E08E03033DBB2013575
:103930007B55B4420ED3202D0CD004003100200062
:1039400000F074F9CBB20929EFD90D9A944663447B
:10395000DBB2ECE74E465446A946129D75E4099B3E
:103960001A0008CAD91713925A184A409146DA0F1A
:103970001292002B08D1802310220B99DB000B4000
:1039800091430B91002B2BD10B9A6123920600D50A
:1039900041230EAA1F279446DBB20A3B0D956744CC
:1039A00055460993A2464C46B1460C9E08E030337A
:1039B000DBB201357B55B4420ED3202D0CD0040070
:1039C0003100200000F032F9CBB20929EFD9099A71
:1039D00094466344DBB2ECE74E465446AA460D9D3E
:1039E0000B9B2A0006930A9B2100059343460493F0
:1039F0000C9B08980393129B013602935346019344
:103A000016AB00935B46FEF7E7FD139B0500099399
:103A1000FFF723FB099B04CB91461293002A08D1A0
:103A2000802310220B99DB000B4091430B91002B5C
:103A30002BD10B9A6123920600D541230EAA1F2792
:103A40009446DBB20A3B0D95674455460993A2465E
:103A50004C46B1460C9E08E03033DBB201357B5555
:103A6000B4420ED3202D0CD004003100200000F011
:103A7000DDF8CBB20929EFD9099A94466344DBB249
:103A8000ECE74E465446AA460D9D0B9B2A00069332
:103A90000A9B21000593434604930C9B08980393CB
:103AA000002302935346019316AB00935B46FEF747
:103AB00093FD129B050009930136FFF7CEFAB4423D
:103AC00000D87FE6149B4C460E960F97A946984661
:103AD000159E139D99E6A64200D8FEE6139B4E461E
:103AE0009846A9465446129DFFF7AFFB08C9D81760
:103AF0001A184240099166E500230B935EE4099B86
:103B000004CB92460993FFF792FB2F00E0E50B935D
:103B10000BE6063B0C932EE50EB4012210B585B0E2
:103B200007AC08CC01000094524204480394FFF70C
:103B30006FFA05B010BC08BC03B01847FD24001094
:103B400010B5094A0300146884B0002C08D0012283
:103B500000910648524203A9A047012004B010BDBD
:103B600001F042F80020F9E70C0D0020A927001011
:103B700001480421014B184780020020A13B00109E
:103B8000142310B50100188804331B88984710BD12
:103B9000162310B50100188802331B88984710BD02
:103BA000F0B5C64600B5002916D01423040001253F
:103BB00098461827890046184346216818883B888C
:103BC000984701C4431E984140420540A642F3D1A4
:103BD000280004BC9046F0BD0125F9E7124A936F16
:103BE0009B0815D29066D166002905D0FFE7FFE754
:103BF000FFE7516F106F704704B580210906C217A7
:103C00005140002800D0C84304F0FAF8002104BD58
:103C1000F0B5146E556E576F166FFFF7E3FF14661D
:103C2000556657671667F0BD000000D0114A936FC4
:103C30009B0813D210665166002905D0FFE7FFE705
:103C4000FFE7516F106F704704B5002801D00020C6
:103C5000C04304F0D5F8002104BDC046F0B5146E91
:103C6000556E576F166FFFF7E5FF14665566576779
:103C70001667F0BD000000D094464A4A926F920841
:103C8000624601D228E0C046F0B5464E346E756EED
:103C9000776F366F00F020F89446424A14665566F6
:103CA000576716676246F0BD94463E4A926F920887
:103CB000624601D254E0C046F0B53A4E346E756E9D
:103CC000776F366F00F04CF89446364A14665566A6
:103CD000576716676246F0BD002B24DB11D0002920
:103CE0003EDA00B5C943404200D1013100F038F856
:103CF000C943404200D10131DB43524200D101337C
:103D000000BD002AEBD1002801D1002905D00020F8
:103D1000C90FC90701D1C043410800B504F068F8D4
:103D20000022002300BD00B500290ADBDB4352421C
:103D300000D1013300F014F8C943404200D10131F1
:103D400000BDC943404200D10131DB43524200D1A2
:103D5000013300F005F8DB43524200D1013300BDCE
:103D6000002923D1002B18D1002A0CD0BC460D4FBE
:103D700038667A6600210023FFE7FFE7FFE77A6FE6
:103D8000386F67467047002801D00748010000B52A
:103D900004F02EF80022002300BD02000B000020DA
:103DA00000217047000000D0FFFFFFFF002B00D074
:103DB000BFE0130C28D1002AE7D080B4114F396638
:103DC0007A66FFE7FFE730B4040C7B6F396F1B04A2
:103DD00023433B667A66FFE7FFE7FFE7C04684B20E
:103DE0007B6F3D6F1B0423433B667A66FFE7FFE76B
:103DF000C04600232C042D0C7A6F386F00196941DE
:103E0000B0BC7047000000D0F0B594460025140EF9
:103E100001D112020835140F01D112010435940F9B
:103E200001D192000235D40F01D152000135D40BDB
:103E30000134254F7C66254C3C660E0C93B2FFE79F
:103E4000FFE7FFE73C6F6643360C7703BE467343DC
:103E5000DF0B5B04C01AB941130C7343DB18C91A9A
:103E6000CE086643360CB64493B273431F0F1B0152
:103E7000C01AB941130C73431F0B1B05C01AB9417B
:103E8000860D8F023E436643360C092D24DB520A11
:103E90007243801A7703460A6643360C16235B1B6F
:103EA000DE40DF40BF1964466643821B704604351E
:103EB00006330100D940A840C01900D30131A24205
:103EC00006D20023F0BD0000000000D0FFFFFFFF7E
:103ED000121B0130F3D3F1E709277F1BFE40644634
:103EE000A2B27243801A00D20139220C7243130C21
:103EF0001204821A99410B007046043513370100F1
:103F0000F940A840801900D30131002B02D1A24210
:103F10000AD2F0BD013000D30131121BFAD2013BAD
:103F2000F8D1A24200D2F0BD013000D30131121B02
:103F3000F7E7F0B51C0C00D080E00CB400251C0A9B
:103F400004D11B02160E3343120208351C0B04D198
:103F50001B01160F3343120104359C0B04D19B0047
:103F6000960F334392000235DC0B02D192185B416D
:103F700001351C00971864410134464F7C66464C5D
:103F80003C660E0CFFE7FFE7FFE7C0463C6F664369
:103F9000360C7703BE4697B27743C01B00D2013977
:103FA000C01B00D201399FB27743C91BC91B170C34
:103FB00077437E04FF0B801BB941CE086643360C65
:103FC0000C2D33DBB644120B1F053A431B0B97B283
:103FD0007743C01B00D201399FB27743C91B170C2E
:103FE00077433E043F0C801BB941860D8F023E4350
:103FF000664329277F1BFE400C3D7746AF40BF1923
:1040000030BCA2B2ABB272437343801A9941220C06
:104010007243130C1204801A994102000B000137FD
:10402000001BA941F9D2781E0021F0BD0C277F1B8F
:10403000FE4077467F0BAF40FF19E0E700245D1C90
:1040400007D0144F7D663966FFE7FFE7FFE7FFE71C
:104050003C6F95B29EB265436643401BB141150C5F
:104060001E0C6543664336042F0C3E432D04401B53
:10407000B141994204D202000B0020000021F0BDA2
:1040800001D19042F7D3801A994101349942F2D379
:10409000F6E70000000000D0FFFFFFFF484041406E
:1040A000484018B41B4B5B68FC46019308BD04DF15
:1040B0006743001018B4174B1B68FC46019308BDFA
:1040C00000DF714300109446134A926F920809D2A0
:1040D000624618B40F4BDB68FC46019308BD0CDF49
:1040E000294600100C4AF0B5146E556E576F166FC6
:1040F0006246FFF7EEFF084A146655665767166773
:10410000F0BD18B4034B9B68FC46019308BD08DF63
:10411000CD440010E8100220000000D0FFB5504050
:104120004240504059404B40594000E0FFB5154FC8
:104130004C00640D03D0BC4204D10C0314D8002001
:10414000090D09055C00640D03D0BC4204D11C03B9
:104150000AD800221B0D1B0501264B4009D44B40F9
:1041600003D58B4200D18242FFBD9942FCD19042DF
:10417000FFBD0B43DB1803431343F5D0C943491874
:10418000FFBD0000FF07000000B5FFF7CFFF804133
:1041900000BDC04600B5FFF7C9FF01D9002000BD32
:1041A000012000BD00B5FFF7B9FF01D9002000BD17
:1041B000012000BD00B5FFF7B1FF804100BD012027
:1041C00040054A00121804D85A00121801D80020DD
:1041D0007047012070470020704700000021002830
:1041E00005D17047C1174840401AFAD0C90713B526
:1041F000064B1B6898470CBC441CA2401005120BD0
:104200000349091B09051943114310BDD80F0020AC
:104210001F04000010B54C00620D8023D218DB0093
:10422000D21A5B057E2A10DD9E3A13DACC170903F9
:10423000490819435242D140640001341532202A02
:1042400005DAD0400843604310BD002010BD084689
:10425000604310BDC80FC018013810BD18B4044B1E
:104260005B6AFC46019308BD24DFD94700100000BB
:10427000E8100220132370B51D78012D15D010DD34
:104280002748FFF785FC274C01008022200000F022
:1042900085FB022D06D02448FFF772FC234B1860E3
:1042A00070BD204C224AA264F5E72E001D4C204A26
:1042B000A3085B421E401D422FD033002260202005
:1042C000B1006118801B0A604A608A60CA600A6196
:1042D0004A618A61CA610A624A628A62CA620A6380
:1042E0004A638A63CA630A644A648A64CA640A6560
:1042F0004A658A65CA650A664A668A66CA660A6740
:104300004A674008102803D18A67CA67A264C2E7D7
:104310001E339B00E250A264BDE70023CFE7C046F6
:1043200053440000E81002204C330000D80F002056
:104330003543001007B5604601880A0A0230DF2ABB
:10434000FAD1C9B2820804D302884088000410431D
:1043500000E00068014A5050039007BDE8100220B9
:104360000FB403BC0CBCF0B50124E407634000E0CB
:10437000F0B50C0DCF0F661E3605891B640503D3FF
:10438000C943404200D30131640D03D0661CF60AD4
:1043900007D0E41B00207F00791C89078912803C2C
:1043A00024031D0DDF0F6E1E36059B1B6D0503D309
:1043B000DB43524200D301336D0D03D06E1CF60A6D
:1043C00007D0ED1B00227F007B1C9B079B12803DCA
:1043D0002D032F1B661B58D4A446202E46DA203707
:1043E0001400BC401D00BD40F24033412A438018F8
:1043F0005941CB0F05D0C943C0430022644250410C
:10440000514162464D0D28D10D0D07D100281FD016
:10441000241940414941013A0D0DF9D0640006D3F9
:10442000013000D30131002C01D140084000013A95
:104430000BD4941CE40A04D112051144DB0719447F
:10444000F0BDD907204B194300E0D9070020F0BD8B
:104450000029DDD1002CDBD1F0BD0132C6074008B8
:10446000CD0728434908002EE1D0D9E73C2E29DAB0
:10447000203E40371400BC4000D00124F2401443D9
:104480001A00BB401C43D317ACE7AC46202F08DA18
:1044900020360400B4400D00B540F84039412843AF
:1044A000A5E73C2F0CDA203F40360400B44000D092
:1044B0000124F84004430800B1400C43C117EAE767
:1044C00010001900002494E70000F07FF0B50C0DF7
:1044D000661E3605891BE60A6405640D02D0651C5C
:1044E000ED0A04D0002001210905803C2403A446E4
:1044F0001C0D671E3F05DB1BE70A6405640D02D037
:10450000651CED0A04D0002201231B05803C240316
:104510007740644497B484B296B27443070C7E43E8
:10452000150C6F4380B26843361802D30120000493
:104530003F183004350C00197D41844688B29AB288
:1045400050430C0C62431F0C7C438EB27E43921985
:1045500002D301263604A4191604170C3618674135
:1045600001BC81B29AB25143040C62431B0C5C4300
:1045700080B25843121802D30120000424181004FA
:10458000130C401863412D185E410020474106BCC2
:1045900088B293B258430C0C6343120C544389B253
:1045A00051435B1802D301210904641819041A0C41
:1045B000091862416D1856410020474118BCF902A4
:1045C000720D1143F0026A0D1043ED020A0D03D182
:1045D0006D1940414941013B124E9B1B7600B3428D
:1045E0000ED26D0007D30130002671416646354377
:1045F00001D1400840001B05C918E4072144F0BD63
:104600000BDA013306D1013004D101314F0D01D055
:104610004908F2E7E1070020F0BD0136310500202E
:10462000EBE70000FF030000F0B51C0D671E3F051F
:10463000DB1BE70A6405640D02D0661CF60A04D091
:10464000002201231B05803C2403D0252D060026D3
:10465000F6432E661E096E66CE0FF619B446490063
:104660004F0D02D07E1CF60A03D000200021403FEF
:104670003F033E1BB600B444013F7F05C91B4908F8
:104680002E6F013676089C02950D25437543ED1378
:104690007543AD1301356D10F603761B0CB4CC02D7
:1046A000450D2C43A2B2B3B25A43270C7B43350CC1
:1046B0006F43A4B26C431B1902D3012424043F1995
:1046C0001C041D0CA4187D4124196D41009A91B25F
:1046D000ACB26143170C7C432B0C5F4392B25A433C
:1046E000A41802D301221204BF182204230C52186A
:1046F0007B41019C6C431B19520ED9010A434401B2
:10470000A01A81B2B2B2514303145A43360C734318
:1047100087B27743D617D21900277E4136049B19FA
:104720001704160C7F185E417316ED18F30100266E
:1047300080337541A90F06D16400690AE8055B0A58
:10474000184309D22FE00422944480337541A90A0A
:10475000A8059B0A184326D3404149412404009AE6
:10476000019B0D005543641B4343E41A95B286B286
:104770007543170C7E43030C5F4392B25A43B6183D
:1047800002D301221204BF183204330C52197B41A8
:1047900052429C41002C02D4002201305141400879
:1047A000CA071043490802B06246D7079210084B67
:1047B000D218084B9A4203D212058918C919F0BDC4
:1047C0000020002A01DC3900F0BD01331905F5E7AE
:1047D000FD030000FE070000002200B5203200F0BB
:1047E00004F8080000BD000000220B150AD410B523
:1047F000944600F031F81414013400DA0021CB178C
:10480000144C20470020002170476244343A0CD4F5
:104810000C2A07DA04009140904052422032D440E2
:10482000214310BDD843D94310BD203207D40C46D4
:104830009440524220321141D040204310BD080024
:10484000C917203203D452422032104110BD180043
:10485000190010BD0B4800100A0DCC0F531E1B058C
:10486000C91A520503D3C943404200D30131520D46
:1048700003D0531CDB0A07D0121B00206400611C0C
:1048800089078912803A1203014BD21A704700003F
:10489000FF030000132310B512481C78FFF778F9C6
:1048A0000100012C0AD003DD80220F4800F076F8C9
:1048B0000E48FFF765F90E4B186010BD0A4C5422E4
:1048C000200000F06BF80B4B6365A365E36523667E
:1048D0006366A366E36623676367A367E367236290
:1048E000E361E5E753460000E81102204C33000085
:1048F000D80F0020F948001007B5604601880A0A61
:104900000230DF2AFAD1C9B2820804D30288408873
:104910000004104300E00068014A5050039007BDB6
:10492000E811022070B504000A4E300003F078FA56
:10493000200002F029FD0500300003F051FA002D9F
:1049400005D0054B2C199C4201D8280070BD0348A6
:10495000FDF7B0FD000B002000000420A88100102E
:1049600070B50400054D280003F05AFA200002F04B
:1049700015FD280003F034FA70BDC046000B00207E
:1049800001480421014B184790020020A13B001070
:10499000014B1B681847000090020020014B5B6828
:1049A0001847000090020020030010B508001B68A3
:1049B0001100984710BDC046F8B54746CE4680B5B1
:1049C000437D07000D001600002B37D00024002087
:1049D000002A1EDD4B1E98461B4B9946002C2BD0FF
:1049E00043461B5D0D3B5A425341DBB22A5D0A2A06
:1049F00013D00134A642F1DC864203DD311A3B6854
:104A000028189847AD19013D2B780D3B5A42534168
:104A10003B750CBC90469946F8BD002BE9D1A042ED
:104A200003DA211A3B6828189847484602213B6858
:104A3000013498472000DDE73B7DD7E7036811008C
:104A400028009847E5E7C04618820010F0B5DE461A
:104A500057464E464546E0B585B017001C00060097
:104A60000D00FCF76DFF0023324A12184B41002B5A
:104A70005BDB314908008A4603F0CAF901906B1CE0
:104A800003D1300002F070FF0500002C28D12B4B21
:104A900098462B4B1C68002C15D0002F23D1294F92
:104AA00002E02469002C0ED02368002BF9D03B686B
:104AB000002B01D0A342F4D120002A003100C047CE
:104AC0002469002CF0D1019B002B2AD1681E85415E
:104AD000E8B205B03CBC90469946A246AB46F0BD54
:104AE000194B9846D5E7174B994602ABDF1D0A23B1
:104AF0009B4602E02469002CE5D02368002BF9D006
:104B00004B461B68002B01D0A342F3D12A00310091
:104B10002000C0475B460122390020003B70C0479F
:104B2000E8E7504603F05CF9D0E70122074B524218
:104B30009FE7C04640420F00080B0020B949001013
:104B4000000D0020040D0020A9490010FFFFFF7F89
:104B5000F0B5CE46474680B583B06B460500DE1DF6
:104B60003070FCF7EDFE00231A4A12184B41002B5F
:104B70002CDB19490800884603F04AF9174B070057
:104B80001C68002C16D0164B994602E02469002CB4
:104B900010D02368002BF9D04B461B68002B01D0A6
:104BA000A342F3D1200001223100FFF705FF246961
:104BB000002CEED1002F05D1280003B00CBC90468C
:104BC0009946F0BD404603F00BF9F5E70122054B8D
:104BD0005242CEE740420F00080B0020000D00209B
:104BE000040D0020FFFFFF7F70B5040002F0BCFE43
:104BF00000230100050001222000FFF727FF084BDA
:104C00001C68002C06D06368002B05D098472469E7
:104C1000002CF8D1280070BD2469002CF3D1F9E7ED
:104C2000000D00200A4A1368002B05D10CE01A0081
:104C30001B691032002B07D09842F8D1002902D10D
:104C400003691360016170470029FCD01060FAE726
:104C5000000D002010B500F0C5F8012010BDC046C1
:104C6000F0B50D1E15DD0E4B0D271A680D4B4519BD
:104C7000D31859424B410C495B005E5E20210478F9
:104C8000A64207D093691942FCD101301460A842B2
:104C9000F5D1F0BD93691942FCD11760F2E7C04627
:104CA000F00F00200080FCBFE410022030B50500AA
:104CB000002926DD002010241B4B013D1A68936952
:104CC0001C4219D1013093691C42FCD113682B544A
:104CD0008142F4D1154B1B68002B0CD050239363F9
:104CE000516B183B34320B401100802252010A43B1
:104CF0001360002815D030BD0C4B1B68002BEDD184
:104D0000F7E70A4B1B68002B0BD050223821064BCB
:104D10001B689A635A6B343311408022520113434B
:104D2000196003204042E6E7F00F00208C0C0020C1
:104D3000064B10B51B68002B06D00021044A1268F0
:104D40009163044A1068984710BDC0468C0C00203F
:104D5000F00F0020900C00201D4BF0B51A68C646DD
:104D600098461C4B0E00D31859424B411A4F14332E
:104D70001C00050000B53B68002807D0002B11D0AF
:104D8000164B3D601E6004BC9046F0BD002BF7D072
:104D9000906300212000FCF7C7F820001049FCF7C1
:104DA00007F9EDE720000E49FCF7D8F801212000B3
:104DB000FCF7BAF84346502238211B689A635A6BB5
:104DC000343311408022520113431960D8E7C046A2
:104DD000F00F00200080FCBF8C0C0020900C002005
:104DE000314D001010B50C4B0C4C1B780C4B0221B4
:104DF0001B780C4B00202360FBF7E6FF022101200B
:104E0000FBF7E2FFE12120684902FDF775F8012177
:104E10000548FFF707FF10BDB4830010F00F002016
:104E2000B883001000400340A00200207047C04635
:104E30000B4A13681868203080F30988022080F339
:104E40001488BFF36F8F3FBCAE4608BC04BC62B68B
:104E50001847C046C046C046C046C046C046C046C9
:104E60003C0D0020000000000000000000000000D9
:104E7000EFF30980164B1A6820381060F0C04446E2
:104E80004D4656465F46F0C00D221207146E556E11
:104E9000566F176F3038F0C008B572B601F03EFC9F
:104EA00062B60CBC116808681030F0C8A046A9466C
:104EB000B246BB4680F309880D2212073038F0C88D
:104EC0001466556656671767F0C81847C046C0464F
:104ED0003C0D002010B5FDF705FBC04610B5802441
:104EE000031F64041C60043B19600349043B196000
:104EF000143B40381A6010BDD54E00108022044B80
:104F000052051A60BFF34F8FBFF36F8F7047C046D3
:104F100004ED00E072B6044A136801331360BFF376
:104F20004F8FBFF36F8F7047F80F0220094A136845
:104F3000013B1360002B0CD1074A1168002907D0F0
:104F400006480068BFF35F8F0B6080F31088136022
:104F500062B67047F80F0220D40F0020F40F022031
:104F6000EFF3108072B6704780F310887047C04628
:104F700010B5FFF7F5FF040001F0BEFB002803D0D9
:104F80008022034B52051A602000FFF7EDFF10BD91
:104F900004ED00E0002310B5084A094C0520236009
:104FA0001360FDF779F9FA218900FEF73FFE054B02
:104FB000013818600723236010BDC04618E000E0E8
:104FC00010E000E014E000E0FF22154B1204196825
:104FD00010B50A431A60FF220220196812060A431C
:104FE0001A601049404202F0C3F801200E494042C5
:104FF00002F0BEF805200D49404202F0B9F8FFF773
:10500000C9FF00220A4B1A60D0231B061A68094BFD
:105010001A70FFF70DFF01F081FBFDF763FAC04640
:1050200020ED00E0714E0010714F00102D4E001069
:10503000F80F0220B8020020D02310B51B06186814
:10504000074B1B78834200D010BDEFF30583002B84
:1050500002D05B00C018F7E701F0A6FDF4E7C046F8
:10506000B802002000B5144B83B01A78D0231B0679
:105070001B689A4209D00368BFF35F8F00221A6051
:1050800081F3108820BF03B000BD03680B4A136092
:105090000B4A11600B4A0221944663449B10FF3176
:1050A0009940094B0122186801235B420093090AC9
:1050B000002300F025F9E6E7B8020020D40F002015
:1050C000F40F022000FFFF2F6010022000B51C4AE1
:1050D0000B001178D0221206126883B0914209D0D9
:1050E00040BF0268BFF35F8F0021116083F3108817
:1050F00003B000BD02210068124AFF3182189210ED
:105100009140090ABFF35F8F0022026083F3108889
:10511000EFF30583DBB2002B0DD00B4B0192186827
:1051200001AA00F091F9019B002BE1D08022074BEE
:1051300052051A60DCE7044B186800F03DF9D7E728
:10514000B802002000FFFF2F6010022004ED00E0F5
:10515000F0B5CE46474680B51D00344B14001A7892
:10516000D0231B061B688146884683B09A420FD025
:105170000368BFF35F8F00221A6081F3108820005C
:105180002900FCF743FB03B00CBC90469946F0BDE8
:10519000FCF7D6FB22002B000127121A8B41244E6C
:1051A0007F42B6185F41002F20DC1BD04B461B68A6
:1051B000BFF35F8F00221A6088F310881D4B5A6A74
:1051C000954205D89B6A0120A342DCD29542DAD1F0
:1051D0008022194B52051A60BFF34F8FBFF36F8FB8
:1051E0000020D0E7FA239B009E42DFD3FA2200235F
:1051F000300039009200FEF73FFD031ED6D04A462C
:10520000404612680D490A600D4908600D498C46F8
:10521000022162449210FF3191400B4A090A106842
:1052200000930122002300F06BF8C7E7B8020020CA
:1052300018FCFFFF0040054004ED00E0D40F002003
:10524000F40F022000FFFF2F6010022010B500F0C5
:105250004BF8014B186010BD60100220F8B5DE4617
:1052600057464E464546E0B505000C00070001F0E4
:105270002BF929682E6921430C372960B7422AD0BF
:1052800000239B468023DB049A4680235B049946D7
:1052900080239B0498460EE019420AD04C462242D5
:1052A00002D05A461A4393464346194301F0E4FBA1
:1052B0002968B7420DD03000544602687668130260
:1052C0001B0A2242E8D00C001C40A342E6D0B742A1
:1052D000F1D15B469943296001F0FEF83CBC904651
:1052E0009946A246AB46F8BD10B51C2001F064FFFC
:1052F000041E03D0002308C000F0B0F8200010BD49
:10530000F0B5C646060000B50D0090461F0001F03E
:10531000DBF83468002F0AD125420CD04346002B1D
:105320000CD02300AB43336001F0D6F808E02B002B
:1053300023409D42F2D0069B002B05D101F0CCF812
:10534000200004BC9046F0BD4346002B16D18021BE
:105350000023C904002F00D11900069A2943301DEB
:1053600001F05EFA01F0B8F800281CD001F0DEFC74
:105370000400830107D52402240AE1E7A021802349
:10538000C9045B04E6E7FFF7C5FD3468002F0DD1C3
:105390002C4205D04346002B02D02300AB433360A0
:1053A000FFF7C4FDE7E7FFF7A9FDDFE723002B4088
:1053B0009D42F5D1EEE7C046F8B5DE4657464E466B
:1053C0004546E0B505000F00060001F07DF82968AC
:1053D0002C6939430C362960A6422AD0002398460E
:1053E0008023DB049B4680235B049A4680239B0436
:1053F00099460EE019420AD057463A4202D0424638
:105400001A4390464B46194301F036FB2968A642E1
:105410000DD020005F460268646813021B0A3A42FE
:10542000E8D00F001F409F42E6D0A642F1D143468C
:105430009943296001F050F828683CBC9046994691
:10544000A246AB46F8BDC04610B513000A000100E5
:10545000014801F079FE10BD5D52001003000122E9
:1054600008334360C36003610023524282600360DB
:105470007047C046002303617047C046030030B543
:105480000C680833621C0DD01A005B681D68A542C9
:10549000FAD94B60996003688A60013351600861F2
:1054A000036030BD02695368F3E7C0460369416891
:1054B00082688A6051605968814206D00022026188
:1054C0001A68013A1A60186870475A60F6E7C046D1
:1054D000F0B5DE464E4657464546E0B585B0060077
:1054E000FFF718FD4523F45C64B2002C21DD213B5D
:1054F000994621339B46B14409E0AB6BEA6B0396B6
:10550000934245D3013CE3B264B2002B11D0B56C99
:10551000002DF2D1736A002B0BD0484601F040FAFF
:105520000028EFD001F03AFB013CE3B264B2002B5B
:10553000EDD14523FF22F254FFF7F8FCFFF7EAFC18
:105540004423F45C64B2002C16DD3500103504E011
:10555000013CE2B264B2002A0ED03369002B0BD0BA
:10556000280001F01DFA0028F2D0013C01F016FBE2
:10557000E2B264B2002AF0D14423FF22F254FFF7D2
:10558000D5FC05B03CBC90469946A246AB46F0BD62
:105590005B462A6CEF5CAB6B7FB29846002A13D156
:1055A0002B680193002B30D000239A4643460133E9
:1055B000AB637B1C17D16B6A002B1DD15346002BAC
:1055C000A0D001F0EBFAAFE7686803A9FFF7E6F9AE
:1055D0002A6C6B689446AA6863446B609342E3D379
:1055E0002B686B60E0E701F081F8B842E6D95B46D2
:1055F00001377FB2EF54E1E72800243001F0D0F901
:105600000028DBD001F0CAFA8EE7A86801F01CFB85
:10561000019B8246AB60C9E7F0B5C64600B5846C15
:1056200082B0A36BE26B00250190934204D3280063
:1056300002B004BC9046F0BD4523226CE65CA76B2B
:1056400076B2002A1CD0606801A9FFF7A7F9226C86
:1056500063689446A26863446360934214D32368EA
:1056600063600137A763731C13D1636A002BDED01C
:105670002000243001F094F90028D8D00125D6E785
:1056800023689846002B0DD001370025A763731CB3
:10569000EBD001F02BF88642C9D24523013676B211
:1056A000E654C4E7A06801F0CFFA43460500A360C2
:1056B000D7E7C046F8B505000E001700002846D011
:1056C0000B0C020C002B34D1331C002A35D13000D6
:1056D0006843030055333AD8543001F06DFD041E81
:1056E00035D00300002E00D054332360E5632664D8
:1056F000FFF710FC216CE36B22684B43D0185B1A58
:10570000D3186260E3600025FF234422A0602000DC
:10571000A563A3540132A3541030FFF79FFE20006D
:105720002430FFF79BFEFFF701FC5023E754A564EC
:105730000EE0002A0BD11A1C031CB0B2A9B24143DF
:1057400098B293B24343090C5B181B0CBFD00024E2
:105750002000F8BDF0B5CE46474604001E000023E9
:1057600080B585B0994601928846FFF7D3FBA36BBD
:10577000E26B00274425934237D3022E72D0019B5F
:10578000002B00D18AE0002F68D0FFF7CFFB00F09C
:105790009BFEFFF7BFFB625D52B2531C01D14B462B
:1057A00063554523E25C52B2013201D14A46E254CC
:1057B000FFF7BCFB01A902A801F0B6F9002800D050
:1057C00074E0FFF7A7FBA36BE26B934234D0FFF7C3
:1057D000ADFB2000FFF77CFE00F07EFE0127FFF707
:1057E00099FBA36BE26B9342C7D2226CA76BA56BAC
:1057F000002A3CD04146002E00D084E06068FFF7CC
:10580000CDF8226C63689446A26863446360934257
:1058100001D323686360A36C0135A563002B34D1E9
:10582000636A002B36D02000243001F0B9F800283C
:1058300030D0FFF763FB2DE0FFF778FB20000199E4
:10584000103000F0A1FF2000FFF742FE00F044FE00
:105850000028C3D1FFF752FB0127C0E702A801F0DF
:1058600057F992E7226CA76BA56B002A25D1236814
:1058700000209846002B40D0A36C0135A563002B77
:1058800035D0022E01D1002F04D12000FFF7C4FE35
:105890000028CED1FFF74AFB012002E0FFF746FBCC
:1058A000002005B00CBC90469946F0BD2000FFF7E3
:1058B0000FFE00F011FE0020F3E74146E068FFF71D
:1058C0006DF8E168236C5A42CB1A2168E3608B4281
:1058D00005D2A3689C466244E260022E9BD1002D53
:1058E00000D10135A36CA563002BCCD198E7636A86
:1058F000002B98D100289CD1CCE7A06801F0A4F936
:105900004346A360B8E7E068FFF748F8E168236C16
:105910005A42CB1A2168E3608B42DED2D9E7C046F7
:1059200070B50600542001F047FC041E2CD0002561
:1059300001230060C3630564FFF7ECFA216CE36B9D
:1059400022684B43D0185B1AD3186260E36044228C
:10595000FF23A0602000A563A3540132A35410309C
:10596000FFF77CFD20002430FFF778FDFFF7DEFA1B
:1059700050230022E654002100232000A564A560E6
:105980002560E560FFF7E6FE200070BDF8B54E46E5
:10599000DE46574645460400E0B591461D000F001F
:1059A000FFF7DEFAA36BE26B0600934235D3022DBC
:1059B0000AD000243000FFF7D7FA20003CBC904604
:1059C0009946A246AB46F8BD4523E35C226C5BB228
:1059D0009846A36B9B46A36B9A46002A44D127683E
:1059E000002F65D053460133A3634346013330D1C2
:1059F000A36C002B4DD0022D02D15B46002B0AD1A7
:105A00002000FFF709FE002805D04B46002B02D0EE
:105A100001234A4613600124CCE74523E35C226C52
:105A20005BB29846A36B9B46A36B9A46002AD6D0DE
:105A3000002D19D139006068FEF7B0FF226C636851
:105A40009446A268634463609342CBD32368636047
:105A5000C8E700F04BFE8045DDD2434645220133C6
:105A60005BB2A3540124A5E73900E068FEF796FF76
:105A7000E168236C5A42CB1A2168E3608B4203D25F
:105A8000A3689C466244E2605346022D0CD0013369
:105A9000AAE7636A002BBED02000243000F080FF0C
:105AA0000028B2D1012485E7002B9DD101339BE76B
:105AB000A06801F0C9F85346A760013394E7C046D7
:105AC000F0B54746CE46040080B585B088460192C1
:105AD000FFF720FAA76B002F5FD1019B002B3BD073
