:020000041000EA
:1000000000B5324B212058609868022188439860DF
:10001000D860186158612E4B002199600221596106
:100020000121F02299502B49196001219960352056
:1000300000F044F80222904214D00621196600F024
:1000400034F8196E01211966002018661A6600F04E
:100050002CF8196E196E196E052000F02FF8012189
:100060000842F9D1002199601B49196000215960AB
:100070001A491B48016001219960EB211966A021F2
:10008000196600F012F800219960164914480160C1
:100090000121996001BC002800D000471248134993
:1000A000086003C880F30888084703B5996A0420EC
:1000B0000142FBD001200142F8D103BD02B5186610
:1000C0001866FFF7F2FF186E186E02BD00000240BE
:1000D000000000180000070000035F00212200005C
:1000E000F4000018222000A00001001008ED00E03C
:1000F00000000000000000000000000074B24E7A12
:1001000000200420F7010010C3010010C5010010F9
:10011000C1010010C1010010C1010010C101001097
:10012000C1010010C1010010C1010010C701001081
:10013000C1010010C1010010C9010010CB01001065
:10014000CD010010CD010010CD010010CD01001037
:10015000CD010010CD010010CD010010CD01001027
:10016000CD010010CD010010CD010010CD01001017
:10017000CD010010CD010010CD010010CD01001007
:10018000CD010010CD010010CD010010CD010010F7
:10019000CD010010CD010010CD010010CD010010E7
:1001A000CD010010CD010010CD010010CD010010D7
:1001B000CD010010CD010010CD010010CD010010C7
:1001C00000BE00BE00BE00BE00BE00BEEFF3058054
:1001D000103800BEF2EB88717C6E00109C6E00102F
:1001E0003402001090A31AE700201F49086006C8D7
:1001F00081F3088810471D48006800282FD10DA4FE
:100200000ECC002902D000F012F8F9E71849194A7B
:10021000002000E001C19142FCD1174988471749ED
:1002200088471749884700BEFDE701C901C29A42C5
:10023000FBD370479C6E0010C0000020500F0020C0
:100240002C7D001000000420000004202C7D0010F4
:10025000001004200010042000000000704709482E
:1002600001F076FD0047000008ED00E0000000D03E
:10027000500F0020A4200220BD1B00108D03001091
:10028000B11C00105756000006005250ABB360532B
:10029000086C001006005250861C0302186C0010F7
:1002A000060052505422A29D206C001005005250AE
:1002B000DE65F4682C7D0010F8B5C0460448054B97
:1002C00010B5834203D0044B002B00D0984710BDDB
:1002D000500F0020500F0020000000000648074982
:1002E000091A8B10C90FC91810B5491003D0044B57
:1002F000002B00D0984710BD500F0020500F002059
:100300000000000010B5074C2378002B09D1FFF73F
:10031000D5FF054B002B02D0044800E000BF0123AD
:10032000237010BD5810002000000000486B001022
:10033000054B10B5002B03D00449054800E000BF71
:10034000FFF7CCFF10BDC046000000005C1000208D
:10035000486B0010F8B5D02580240A4F0A4E2D06B0
:10036000A40438006C6102F065F9FA20400005F041
:1003700053FD3000AC6102F05DF9FA20400005F059
:100380004BFDEEE7486B0010506B001000B51920D4
:1003900083B000F019F8D02380221B0692045A6221
:1003A00002F07EF900230193013380220449009377
:1003B0000448002305F030FA05F06EFB03B000BDE1
:1003C000586B0010550300100123D0228340120601
:1003D00093629361094A83009446402263441968FA
:1003E000C0004A40C02111408022520113431960CD
:1003F000034B9C46052360444360704704C00140A2
:1004000000400140024B18688007C00F7047C0468B
:1004100000C00640F8B5EFF3108772B60E4E336891
:10042000002BFCD0BFF35F8FCB08C4180725A44670
:10043000C45C01230D40AB4018002040234208D18A
:10044000624623431370BFF35F8F306087F31088D9
:10045000F8BD100001F030FC2C0100D0F8B5CE46FC
:1004600047468C4680B5EFF3108872B6214D2C6854
:10047000002CFCD0BFF35F8F9A422CD8D408072100
:10048000055D0619012411408C402C421FD0072124
:100490008946063909E0D408055D06194C460F0067
:1004A0001440A7403C002F4211D001329342F2D2B7
:1004B00001204042BFF35F8F00220E4B1A6088F389
:1004C000108800280FDB0CBC90469946F8BD2C43E1
:1004D00010003470EEE7BFF35F8F00232B6088F3CA
:1004E0001088012040426346002BECD0089801F0B0
:1004F000E3FBC0462C0100D00021044B044ABFF3AB
:100500005F8F02C39342FAD17047C046000100D00A
:10051000800100D0044A1078431CDBB2172B00D9AD
:10052000102313707047C046400E002000B5054BE5
:1005300083B00100009318221F230348FFF78EFFAA
:1005400003B000BD646B0010101500200123834030
:10055000002904D0034A1360034A13607047034A1A
:100560001360FBE780E200E000E100E080E100E0F2
:1005700001238340014A13607047C04600E200E057
:10058000084B10309B688000C358002B07D0064AE8
:1005900000209B1A2F229A424041C0B2704700208F
:1005A000FCE7C04600ED00E0440E0020024B103096
:1005B0009B688000C058704700ED00E070B50D00EA
:1005C000EFF3108672B60F4A1368002BFCD0BFF30E
:1005D0005F8F0D4B10309B6884001B590B4A934270
:1005E00003D09D4201D001F085FB074B9B681D5154
:1005F000BFF35F8FBFF35F8F0022024B1A6086F359
:10060000108870BD240100D000ED00E0CD01001085
:10061000F0B557464E464546DE46E0B5894683B0BE
:1006200005001700EFF3108A72B65D4A1368002BBD
:10063000FCD0BFF35F8F00205A4B18569B46002812
:100640006CDB5A464400584E2418A40033199846CF
:100650009B7910351370554BAA009B6801929B58EB
:100660009C469B1B2F2B28D8012261469143CB79B6
:10067000BB4208D86AE053009B189B00F318DD7951
:10068000BD4251D9190006228A56002AF3DA0B1D01
:100690009B46474E43465C46043B1B1B1B05454C93
:1006A0005B0D23438B80887141468A714A46424BD9
:1006B0008E800B60CF718A601BE0404B9C4542D11D
:1006C00042463F4B023413803E4B3619043B9E1B7F
:1006D0003605384B760D1E433B4B56809380FF23E7
:1006E000D771937143464A469A60012342461A43A2
:1006F000944661462D4B019A9B689950BFF35F8FDA
:10070000BFF35F8F0022264B1A608AF3108803B074
:100710003CBC90469946A246AB46F0BD01F0EAFAD1
:100720005B46002018568CE70B1D9B468B880434D3
:100730005B051B155B4436199E1BE0233605760DC1
:100740001B021E43A6E701F0D5FAB9E745460B00A8
:100750001E489B1B5B415843000D194B2B80A31C6B
:100760009C46B4446546174B0434043B5B1B1B0595
:10077000104D5B0DAC462B43454636196B800B1F65
:100780009E1B6346A87148463605760D1E430A4BEC
:10079000AE80EF71A8600B60434613439C46A8E708
:1007A000240100D09C1D0220440E002000ED00E03A
:1007B00001BD000000E0FFFF01488047CD010010AF
:1007C00000A1FFFF740E002001BDFFFFAAAA0000D8
:1007D000F0B5DE4657464E464546E0B50C0083B0C0
:1007E000EFF3108972B6594A1368002BFCD0BFF39F
:1007F0005F8F574B9A68030010339F00D559554AB5
:100800009046954232D0A54243D0534EAA1B2F2A80
:100810002CD80122824092465146504A126811401B
:10082000019151464E4A1160BFF35F8FEFF305828D
:100830009346002A33D101232A009A4393689C42AD
:1008400008D178E04B005B189B00F3189968A1422F
:100850002AD01A00062151560029F3DA019B002BF9
:1008600019D052463F4B1A603C4B1A60384B9B687C
:10087000DD51BFF35F8FBFF35F8F0022334B1A60F0
:1008800089F3108803B03CBC90469946A246AB461B
:10089000F0BD1500EAE75246314B1A60E6E7934295
:1008A000C9D001F027FAC6E706215956002922DBF4
:1008B0004A005018800034188046A0689860E0799B
:1008C000D871062020569871A0797F2824D8A48852
:1008D000F01A6405241544440019E0240005400D75
:1008E00024022043988052181F4B9200B6181A78A1
:1008F0001970B271B2E7594600290FD1FF319171D9
:100900001A49918018490A789A71194A9B1B5B41D0
:100910005A43120D0A70A1E71648E3E7164A174931
:10092000D21A083A5002400D0143998014495208E6
:100930000A43DA8092E70621515613000029B7DAFC
:100940005A46002AEAD14546DCE7C046240100D0D9
:1009500000ED00E0CD010010440E002000E100E0B9
:1009600080E100E080E200E09C1D022001BDFFFF6D
:10097000AAAA000001BD00007E0E002000F0FFFFCB
:1009800000F8FFFFF0B5EFF3058101240443EFF316
:10099000108672B6214A1368002BFCD0BFF35F8F1C
:1009A0001F4B05001F4AED1A6D416A43120D1E4D83
:1009B0008900AF6852B27F58A7421CD00621595611
:1009C00091421CD012215956914222D01E215956D3
:1009D000914220D02A2159560324914210D0134B22
:1009E00019781A708171BFF35F8F00220B4B1A6068
:1009F00086F31088F0BDAB680D4C5C50EFE7002427
:100A00006100091989005B18FF21997109499980D2
:100A1000E5E70124F4E70224F2E7C046240100D010
:100A2000440E0020AAAA000000ED00E09C1D022058
:100A3000CD01001001BDFFFF054B064A1360064AB9
:100A4000136053609360D360136153619361704787
:100A50008080808000E400E004E400E000B5074B03
:100A600083B001000093002205230548FFF7F6FC40
:100A7000002801DB1F23181A03B000BD806B001093
:100A8000A11D0220024B9C46614489000160704711
:100A90004000003410B50400FFF73CFD01002000C9
:100AA000FFF7F0FF01235B426360BFF35F8F10BD70
:100AB00010B50400FFF72EFD01002000FFF7E2FF54
:100AC00001235B42636000232372BFF35F8F10BD7D
:100AD00010B504000120FFF729FD034BC3189B004C
:100AE0002360BFF35F8F10BD40000034034B9C4672
:100AF000614489000160BFF35F8F7047400000349C
:100B000083680B4810B584466144624409011201B0
:100B10009A18591854684B6801209C4201D802D099
:100B20000020C0B210BD12680B689A42F9D8F7E7EE
:100B3000FFFFFF0F074810B50268EFF3108172B690
:100B40001368002BFCD0BFF35F8F04F05BF800202C
:100B5000002110BD7C1C0020F8B5574645464E4686
:100B6000DE46E0B599460CAB19780DAB1B78050055
:100B700090469A460768002912D1BE7B002E45D0C8
:100B800074003B68A419033C1B195A783100BA73EE
:100B9000002A00D1FA7300229A705A701A7003E08A
:100BA0000E004C006418033C2C4B00229C46AB68A2
:100BB00061449C464346090161440B604B464B60CF
:100BC0000A9B8B600B9BCB603B681B199A705A7019
:100BD0001A707B7B9B46002B2CD032005946B8689C
:100BE0007B6898473A68002817D05B4658465B00F8
:100BF0005B441419033BA070D118D35C002B00D0C8
:100C000063705B460E707B73B34514D030003CBC00
:100C100090469946A246AB46F8BD5B465B005B44F6
:100C2000033BD3189E701119125D002A00D05A7030
:100C30005B460B707E7342464B46287D00F012FBEC
:100C4000041E06D05346002B03D13100286800F063
:100C500057FD0E9B002BD9D01C70D7E7FFFFFF0F6D
:100C6000F0B5DE4657464E4645460023E0B58BB00C
:100C70000893664B8200D45800239B46099000F0ED
:100C8000A1FA626806000F00EFF3108572B61368D0
:100C9000002BFCD0BFF35F8F23689C465B7B99469B
:100CA000002B68D0A2685A4B90464B441B019844D5
:100CB00043461A685B6810001900801BB94100297F
:100CC00063DD099800F0CEFA002300229846002345
:100CD0000692079300239A466368BFF35F8F5A46D4
:100CE0001A6085F310885346002B08D10028C6D11E
:100CF0000BB03CBC90469946A246AB46F0BD089B63
:100D0000414618024B461843D047626806000F0060
:100D1000EFF3108572B61368002BFCD0BFF35F8F22
:100D2000002F4FDB33003B4302D02369002B60D1FF
:100D30002368DA7B002A07D051008A1819688C468C
:100D400049466244033A51709A7B002A01D14A46CF
:100D50009A734A46DA734B46E168013BCA5C01323A
:100D6000CA545B4623616368BFF35F8F5A461A60BB
:100D700085F3108883E7002300229846002306921B
:100D80000793002300209A46A6E7002901D10028F6
:100D900097D10021604600F011FC43461A685B6859
:100DA0000692079343469B689A464346DB689846FB
:100DB000E3684B44013B1B7808931B020343236108
:100DC000002089E72369002BB2D0069A079B921B6B
:100DD000BB41002B15DB5946049101210391494683
:100DE000029141460191514620000091FFF7B4FE67
:100DF000B7E700F0E7F932003B0012184B41002B37
:100E0000E9DA0122034B5242E5E7C046C41900204B
:100E1000FFFFFF0FFFFFFF7F10B5144C6368002B2F
:100E200004D00A211248FFF72DFE10BD2300114AFD
:100E30001021206800F0DCFA032000F0B7F903204D
:100E400000F082FA03200C4900F0C6F9FFF762FBBC
:100E50000A4B9C4603232375D0231B061B68604462
:100E60006375074B80006060DC60DAE78C0E002061
:100E70007C1C0020010B0010610C001040000034AD
:100E8000C4190020004870478C0E0020F0B557466A
:100E90004546DE464E46E0B585B0019310AB1B7863
:100EA00000270393002380469A46009243465A68DF
:100EB000EFF3108972B61368002BFCD0BFF35F8F7D
:100EC00043461D68AC7B002C4FD066002B6836195A
:100ED000033E9B195A78AA73002A00D1EA7342464E
:100EE0009F705F701F7092684A4B94460099019AF8
:100EF000E3181B01634419605A600E9A9A600F9AB6
:100F0000DA602B689B199F705F701F706B7B9B462C
:100F1000002B46D022001900A8686B6898472A6801
:100F2000002831D05B4658465B005B449619033B72
:100F3000B070D118D35C002B00D073705B460C707E
:100F40006B735C452ED04346DB681B19013B187858
:100F500043465B68BFF35F8F1F6089F31088534679
:100F6000002B2ED10002204307E05B68BFF35F8FA8
:100F70001C6089F310880120404205B03CBC9046BB
:100F80009946A246AB46F0BD5B465B005B44033B23
:100F9000D3189C709119925D002A00D05A705B465C
:100FA0000B706C734346187D009A019B00F05AF950
:100FB00082460028C7D043462100186800F0A0FBF5
:100FC000C1E7039B002B23D00E9B00200F9998476D
:100FD000030004000D000B431AD000290ADA009A1E
:100FE000019B121BAB4100920193002B0ADB039B78
:100FF0009A465BE700F0E6F824184D41009401950D
:10100000002DF4DA0123044C5B4200930194EEE7D7
:101010000020B2E7FFFFFF0FFFFFFF7F70B54268C0
:101020000400EFF3108572B61368002BFCD0BFF3F9
:101030005F8F2068CAB2437B93420AD0FF230B40E4
:101040005E00F3180668B4466344033B9B78002BAC
:1010500013D0E668FF23B4460B406344013B090A02
:101060001E78C9B28E420DD000206368BFF35F8F37
:1010700000221A6085F3108870BD22698A42F3D17C
:101080002361F1E7110000F03BFBEEE7407D704784
:1010900070B5EFF3058305000C0084B0002B0FD072
:1010A000104B0020596A8C4203D89B6A0130AB4236
:1010B00001D304B070BD641A611E8C41E0B2F8E740
:1010C000094E02930193094B0200009330000B007C
:1010D000FFF7DCFE011EE3DD20BF3000FFF79EFFBF
:1010E000DEE7C046004005408C0E0020350B0010A6
:1010F000F0B5EFF30582D6464F4646461000C0B520
:101100001038EFF3108872B6214C2368002BFCD006
:10111000BFF35F8F0123190081401E4D1F006963DB
:10112000AA461D4D29601D4D2E78AC463500C540A0
:101130002F402B4215D05346194D5F6A83005D59ED
:10114000AF4218D3174A8E439B5862461670BFF3BE
:101150005F8F0022226088F31088002B06D098470A
:1011600004E0BFF35F8F276088F310881CBC9046B3
:101170009946A246F0BD0C4B92009C46624413680F
:101180001360BFF35F8F0023236088F31088EDE7BF
:10119000280100D0004005403C700540A01D022001
:1011A000881C0020F8130020D03F054010B5010036
:1011B000024A0348FFF72EF910BDC0469C6B001091
:1011C0009B1D0220034B596A0A00986A596A8A4299
:1011D000FAD170470040054070B504000D00EFF3F0
:1011E000108672B61A4A1368002BFCD0BFF35F8FCB
:1011F000002D1BD02000FFF7D9F9164981420AD0F3
:101200002000FFF7DBF901212000FFF79FF9012300
:10121000A340114A1360114BA400E550BFF35F8F48
:1012200000220B4B1A6086F3108870BD0B4BA20096
:10123000D5500122A2400A4920000B7893430B703D
:101240000449FFF7C5FA00212000FFF77FF9E5E721
:10125000280100D0F110001038600540F81300207C
:10126000A01D0220F0B54F46D6464646C0B5070041
:10127000304C616A0D00A66A616AA942FAD18B42BC
:1012800008D805D001201CBC90469946A246F0BD66
:10129000B242F7D9EFF3108972B6274801680029E6
:1012A000FCD0BFF35F8F01252449BD408C460978EF
:1012B000204C0E002E438846F1B28A4661465046C5
:1012C0000870391D1E48890065630A51B9000B502A
:1012D000216A0020294219D0616A0800A66A616A61
:1012E0008142FAD18B4219D801D1B24216D8C245F7
:1012F0001DD0104B1F201D625D6301230740BB40C2
:10130000104A1E381360634642461A70BFF35F8F5F
:101310000022094B1A6089F31088B4E70020BFF35C
:101320005F8F0022044B1A6089F31088ABE701201D
:10133000ECE7C04600400540280100D0A01D022077
:10134000881C002080E200E010B5EFF3108472B634
:101350000A490B68002BFCD0BFF35F8F0123834049
:10136000074A0848136202789A430270BFF35F8FFE
:1013700000230B6084F3108810BDC046280100D004
:1013800000400540A01D022070B505000E001400AD
:10139000002924D0002A24D080686B6898472968E7
:1013A00000280ED063001B197200033B9219CB1862
:1013B000033A9E7088188A5C002A14D104703000A9
:1013C0000EE073009B196200033B1219CB18033A1D
:1013D0009C7088188A5C002A00D05A700670200021
:1013E00070BD0800FCE75A7004703000F8E7C04692
:1013F00030B583600023CCB2437301330473426081
:101400008373C4730D000068012C06D9421C01339C
:10141000DBB2137003329C42F9D1FF2129404B000B
:101420005918002340180338437030BDF8B5CE4634
:10143000474606000C0080B5002907D04D00036820
:101440006D18033D5A195778002F04D120000CBCA9
:1014500090469946F8BD7900C91903398846434436
:101460005978894600215970517073683A002100FB
:10147000806898473368002814D042469A189470C0
:1014800059195B5D002B00D053700F70270049463F
:101490003000FFF7CBFF390002003000FFF774FF88
:1014A0000400D3E7424641465D19AF709A185B5C71
:1014B000002B00D06B701470E9E7C046F0B55746BA
:1014C0004546DE464E46E0B50D006B0001685B19EF
:1014D000DF1E0400C85D83B00192CA19002850D0F5
:1014E00043001B18033BCB185E78B446002E1AD17C
:1014F000019E002E42D0E67B002E04D073009B1983
:10150000CB18033B5D70A37B002B00D1A573E57363
:1015100000282FD10023537003B03CBC904699465D
:10152000A246AB46F0BD72006244033A89184A787D
:10153000904600224A7091465A7001003200200005
:10154000FFF722FF43468246002B07D05B0021684D
:101550004344033BCB185A78002A16D142465146E1
:101560002000FFF711FF2168019BCA19002BC2D18F
:101570000028CFD043001B18033BCB1800219970E3
:10158000C8E7019B002BB6D1C4E750008018033890
:1015900009184878834648464870587041462000EC
:1015A000FFF7F2FE594680462000FFF73FFF414615
:1015B00002002000FFF7E8FE8046CFE7F0B54E4678
:1015C0004546DE465746E0B5467B04007500006898
:1015D000AD19033D83B00191415D4219002952D0FC
:1015E0004B005B18033BC3185F78BC46002F1CD12F
:1015F000019D002D44D0E57B002D04D06B005B19CC
:10160000C318033B5E70A37B002B00D1A673E67367
:10161000002931D1002330005370617303B03CBC0A
:1016200090469946A246AB46F0BD7A006244033A22
:101630008018427893460022427091465A702000EA
:101640003A00FFF7A1FE5B468046002B07D05B0007
:1016500021685B44033BCB185A78002A17D15A46BD
:1016600041462000FFF790FE019B010020684219CF
:10167000002BC0D10029CDD04B005B18033BC31811
:1016800000209870C6E7019B002BB4D1C2E7500040
:1016900080180338091848788246484648705870C0
:1016A00059462000FFF770FE53468346002B07D0B3
:1016B0005B0021685344033BCB185A78002A06D1BB
:1016C000594652462000FFF75FFE8346C7E75000A9
:1016D00080180338091848464F78487058705146AA
:1016E0002000FFF751FE390081462000FFF79EFEE3
:1016F000494602002000FFF747FE8246E0E7C04669
:1017000070B5040000292CD0437B8B422ED0056895
:1017100048004018033828188278002A21D0530046
:101720009B18033BEA5CEE188A4202D11BE0002AB8
:1017300008D053009B18033BEB185A788A42F6D125
:1017400042785A7000230122837043702000FFF713
:10175000B5FE617B02002000FFF716FE60730120DA
:1017600000E0002070BD43783370EBE701221900E0
:10177000FFF7A4FE60730120F4E7C04630B50C20EB
:1017800083B000F0B3F9FEF73DFE00280ED0944B75
:10179000944A1A605A609A60DA601A615A619A61D2
:1017A000DA611A62904A5A6203B030BD8F4CA0676A
:1017B00000F0F0F901228E4B1A60636C012BFCD112
:1017C00003228C4B1A60894A936B012BFCD10133A5
:1017D0000121894A89480093043300F033F9052335
:1017E000874A00930121874800F02CF9864B5A68FC
:1017F000FF2A02D8802252005A608022784C7D4B0A
:1018000021691201804D1A60002905D0606900F03D
:10181000CDFA01300138FDD1E0217B4B02201A685E
:101820001140802252012A43116019684840032167
:101830000140116004219A681142FCD0802280216D
:1018400092012A4309011160802252005A606F4BB5
:1018500023616F4B5968FF2900D85A6003226C48F6
:10186000634B01211A60020093681942FCD0E02505
:1018700013681D4080235B0103431D6012684A40CA
:101880000321114019600221614A93681942FCD07A
:10189000802380219B0103430901196080215D4B56
:1018A0004900516063615C4B5A68FF2A00D8596057
:1018B00080225A4BE1691201574D1A60002905D068
:1018C000606900F073FA01300138FDD1E02252491D
:1018D0000B681A4080235B012B431A60802380220F
:1018E0009B012B4312011A6080223E4B52004A603A
:1018F000E3614B4B5968FF2900D85A608022494B5D
:10190000216A1201464D1A60002905D0606900F075
:101910004DFA01300138FDD1E02241490B681A40EF
:1019200080235B012B431A60802380229B012B4381
:1019300012011A60802380225B004B60294BD20287
:101940002362394B5968914200D25A608022374B4A
:10195000616A1201344D1A60002905D0606900F0F7
:1019600025FA01300138FDD1E0222F490B681A40D9
:1019700080235B012B431A60802380229B012B4331
:1019800012011A608023DB024B60174B6362284B05
:101990005A68FF2A02D8802252005A608022254BC2
:1019A000A1691201224D1A60002905D0606900F07A
:1019B000FDF901300138FDD1E0221D490B681A40C4
:1019C00080235B012B431A60802380229B012B43E1
:1019D00012011A6080235B004B600E4BA361E3E6AB
:1019E00014150020006CDC021BB7000000800040D2
:1019F0003CB0004030B00040002F685900800240E9
:101A0000008C864700C0024030800040001BB700B9
:101A10003C800040405973075480004054B000405F
:101A20006080004060B000406C8000406CB00040BE
:101A30004880004048B00040014B8000C0587047CB
:101A400014150020F8B504000C2017001D000E002E
:101A500000F0ACF94101091A8B01591AC9000918A3
:101A60008901380000F0A2F9069A2B0412031343EF
:101A70002268002A21DB194AA21851424A418021DA
:101A800049018C4652420A40154962440A60154990
:101A90000A60154917008D68AF43FBD1C021221D94
:101AA0008901114321222660A0600A602268002A71
:101AB000FCDAE36008230B60F8BD3F2221680A408E
:101AC000B242D8D1A2681205120D8242D3D1EE21C2
:101AD000E268C9020A409A42CDD1EDE70040FDBF5D
:101AE00000E0004000F0004000C000408023024AB7
:101AF0009B000343D36270470080054010B514007B
:101B000080221B4BD2051A6000281AD00123194AE3
:101B10001843194BDA61194A42401A6259629862B5
:101B20008022134BD2051A601549164A1160E02233
:101B3000D2041A60002C07D18022134B12061A60BF
:101B400010BD0D4BD861EBE780236201121B9200A0
:101B5000121912015B049A4200D30C4A0C4B1A6012
:101B6000054B5A608022084BD2051A60E8E7C04650
:101B700000B00540D3C007B0008005402D3FF84FAE
:101B8000FCFF01000820014000A00540FFFFFF000E
:101B9000B4190020AA23064A1B0113602F2305490C
:101BA000D360054B19605368002BFCDA7047C046C0
:101BB0000040024000B0FA00006002402C4B2D4A69
:101BC00070B51A602C4A2D4B2D491A6010008B6895
:101BD0009843FBD12B4C2C4B9C4209D2013B1D1B43
:101BE000AD080135AD002D1908CC9847AC42FBD1AA
:101BF000FFF7C4FD254A214B1A60214A9368DB0197
:101C00008033FBD14022224B224C234D9A675A67E6
:101C10001A67DA66AC4208D223682000002B21D074
:101C20000C34FEF745FFAC42F6D31C4C1C4DA168AA
:101C3000C022280000F0D8FBA560FEF75DFCFEF78F
:101C4000FBFEFFF7E9F8174C174B9C4209D2013B0A
:101C50001D1BAD080135AD002D1908CC9847A542D4
:101C6000FBD170BD0834FEF715FFAC42D4D3DCE7DE
:101C700000E00040BFCDFBFEFE7F3C0000F00040D6
:101C800000C00040340F0020440F0020FFFFFF0180
:101C900000F00140240F0020340F002000ED00E090
:101CA00000000020440F0020500F002000BEFDE780
:101CB00010B5FFF7FBFFC0460FB400B5084883B06E
:101CC00000F0B8FC049B002B07D005A91800019177
:101CD00000F01EF8034800F0ADFC0120FFF7E6FF1E
:101CE000C06B0010D06B001010B50148FFF7E4FF87
:101CF000D46B001010B50148FFF7DEFFE46B001055
:101D000010B5002800D110BD00F048FCFBE7C0462C
:101D100010B5094A0300146884B0002C08D00122D1
:101D200000910648524203A9A047012004B010BD0B
:101D300000F080FC0020F9E7B0190020011D001020
:101D400001480421014B1847C00E0020711D0010EE
:101D5000142310B50100188804331B88984710BD60
:101D6000162310B50100188802331B88984710BD50
:101D7000F0B5C64600B5002916D01423040001258D
:101D800098461827890046184346216818883B88DA
:101D9000984701C4431E984140420540A642F3D1F2
:101DA000280004BC9046F0BD0125F9E7114A936F65
:101DB0009B0813D210665166002905D0FFE7FFE7A4
:101DC000FFE7516F106F704704B5002801D0002065
:101DD000C04304F079FE002104BDC046F0B5146E86
:101DE000556E576F166FFFF7E5FF14665566576718
:101DF0001667F0BD000000D094464A4A926F9208E0
:101E0000624601D228E0C046F0B5464E346E756E8B
:101E1000776F366F00F020F89446424A1466556694
:101E2000576716676246F0BD94463E4A926F920825
:101E3000624601D254E0C046F0B53A4E346E756E3B
:101E4000776F366F00F04CF89446364A1466556644
:101E5000576716676246F0BD002B24DB11D00029BE
:101E60003EDA00B5C943404200D1013100F038F8F4
:101E7000C943404200D10131DB43524200D101331A
:101E800000BD002AEBD1002801D1002905D0002097
:101E9000C90FC90701D1C043410800B504F004FED1
:101EA0000022002300BD00B500290ADBDB435242BB
:101EB00000D1013300F014F8C943404200D1013190
:101EC00000BDC943404200D10131DB43524200D141
:101ED000013300F005F8DB43524200D1013300BD6D
:101EE000002923D1002B18D1002A0CD0BC460D4F5D
:101EF00038667A6600210023FFE7FFE7FFE77A6F85
:101F0000386F67467047002801D00748010000B5C8
:101F100004F0CAFD0022002300BD02000B000020D7
:101F200000217047000000D0FFFFFFFF002B00D012
:101F3000BFE0130C28D1002AE7D080B4114F3966D6
:101F40007A66FFE7FFE730B4040C7B6F396F1B0440
:101F500023433B667A66FFE7FFE7FFE7C04684B2AC
:101F60007B6F3D6F1B0423433B667A66FFE7FFE709
:101F7000C04600232C042D0C7A6F386F001969417C
:101F8000B0BC7047000000D0F0B594460025140E98
:101F900001D112020835140F01D112010435940F3A
:101FA00001D192000235D40F01D152000135D40B7A
:101FB0000134254F7C66254C3C660E0C93B2FFE73E
:101FC000FFE7FFE73C6F6643360C7703BE4673437B
:101FD000DF0B5B04C01AB941130C7343DB18C91A39
:101FE000CE086643360CB64493B273431F0F1B01F1
:101FF000C01AB941130C73431F0B1B05C01AB9411A
:10200000860D8F023E436643360C092D24DB520AAF
:102010007243801A7703460A6643360C16235B1B0D
:10202000DE40DF40BF1964466643821B70460435BC
:1020300006330100D940A840C01900D30131A242A3
:1020400006D20023F0BD0000000000D0FFFFFFFF1C
:10205000121B0130F3D3F1E709277F1BFE406446D2
:10206000A2B27243801A00D20139220C7243130CBF
:102070001204821A99410B0070460435133701008F
:10208000F940A840801900D30131002B02D1A242AF
:102090000AD2F0BD013000D30131121BFAD2013B4C
:1020A000F8D1A24200D2F0BD013000D30131121BA1
:1020B000F7E7F0B51C0C00D080E00CB400251C0A3A
:1020C00004D11B02160E3343120208351C0B04D137
:1020D0001B01160F3343120104359C0B04D19B00E6
:1020E000960F334392000235DC0B02D192185B410C
:1020F00001351C00971864410134464F7C66464CFC
:102100003C660E0CFFE7FFE7FFE7C0463C6F664307
:10211000360C7703BE4697B27743C01B00D2013915
:10212000C01B00D201399FB27743C91BC91B170CD2
:1021300077437E04FF0B801BB941CE086643360C03
:102140000C2D33DBB644120B1F053A431B0B97B221
:102150007743C01B00D201399FB27743C91B170CCC
:1021600077433E043F0C801BB941860D8F023E43EE
:10217000664329277F1BFE400C3D7746AF40BF19C1
:1021800030BCA2B2ABB272437343801A9941220CA5
:102190007243130C1204801A994102000B0001379C
:1021A000001BA941F9D2781E0021F0BD0C277F1B2E
:1021B000FE4077467F0BAF40FF19E0E700245D1C2F
:1021C00007D0144F7D663966FFE7FFE7FFE7FFE7BB
:1021D0003C6F95B29EB265436643401BB141150CFE
:1021E0001E0C6543664336042F0C3E432D04401BF2
:1021F000B141994204D202000B0020000021F0BD41
:1022000001D19042F7D3801A994101349942F2D317
:10221000F6E70000000000D0FFFFFFFF132370B5BA
:102220001D78012D15D010DD2748FFF799FD274CAB
:1022300001008022200000F0D7F8022D06D02448AB
:10224000FFF786FD234B186070BD204C224AA26424
:10225000F5E72E001D4C204AA3085B421E401D429C
:102260002FD0330022602020B1006118801B0A604B
:102270004A608A60CA600A614A618A61CA610A6208
:102280004A628A62CA620A634A638A63CA630A64E8
:102290004A648A64CA640A654A658A65CA650A66C8
:1022A0004A668A66CA660A674A674008102803D1E8
:1022B0008A67CA67A264C2E71E339B00E250A26429
:1022C000BDE70023CFE7C04653440000A41D022011
:1022D0004C330000781C0020DD22001007B560465A
:1022E00001880A0A0230DF2AFAD1C9B2820804D36F
:1022F000028840880004104300E00068014A505002
:10230000039007BDA41D022051434343C9188C46C6
:10231000110C83B24B4310B4040C614392B280B2EF
:10232000504362431C041B0C001910BC5941130498
:10233000120CC0185141614470470000132310B5BE
:1023400012481C78FFF70CFD0100012C0AD003DDB8
:1023500080220F4800F048F80E48FFF7F9FC0E4BBA
:10236000186010BD0A4C5422200000F03DF80B4BC1
:102370006365A365E36523666366A366E366236717
:102380006367A367E3672362E361E5E75346000001
:10239000A41E02204C330000781C0020A123001052
:1023A00007B5604601880A0A0230DF2AFAD1C9B2AD
:1023B000820804D3028840880004104300E00068CB
:1023C000014A5050039007BDA41E02200148042179
:1023D000014B1847D00E0020711D0010014B1B68E7
:1023E00018470000D00E0020014B5B681847000022
:1023F000D00E0020030010B508001B68110098479C
:1024000010BDC046F8B54746CE4680B5437D0700AF
:102410000D001600002B37D000240020002A1EDDFE
:102420004B1E98461B4B9946002C2BD043461B5DF8
:102430000D3B5A425341DBB22A5D0A2A13D00134C4
:10244000A642F1DC864203DD311A3B682818984722
:10245000AD19013D2B780D3B5A4253413B750CBCE5
:1024600090469946F8BD002BE9D1A04203DA211A23
:102470003B6828189847484602213B680134984732
:102480002000DDE73B7DD7E703681100280098476F
:10249000E5E7C046506C0010F0B5DE4657464E46A4
:1024A0004546E0B585B017001C0006000D00FEF79C
:1024B00089FE0023324A12184B41002B5BDB314965
:1024C00008008A4604F018FB01906B1C03D1300011
:1024D00004F09CFA0500002C28D12B4B98462B4B7E
:1024E0001C68002C15D0002F23D1294F02E024694D
:1024F000002C0ED02368002BF9D03B68002B01D0B4
:10250000A342F4D120002A003100C0472469002CE6
:10251000F0D1019B002B2AD1681E8541E8B205B09D
:102520003CBC90469946A246AB46F0BD194B984636
:10253000D5E7174B994602ABDF1D0A239B4602E005
:102540002469002CE5D02368002BF9D04B461B688A
:10255000002B01D0A342F3D12A0031002000C04754
:102560005B460122390020003B70C047E8E7504637
:1025700004F08AFAD0E70122074B52429FE7C04697
:1025800040420F002C0F002005240010A41500204D
:10259000AC150020F5230010FFFFFF7FF0B5CE46FD
:1025A000474680B583B06B460500DE1D3070FEF7F0
:1025B00009FE00231A4A12184B41002B2CDB194943
:1025C0000800884604F098FA174B07001C68002C96
:1025D00016D0164B994602E02469002C10D02368CF
:1025E000002BF9D04B461B68002B01D0A342F3D13E
:1025F000200001223100FFF705FF2469002CEED1F5
:10260000002F05D1280003B00CBC90469946F0BDC0
:10261000404604F039FAF5E70122054B5242CEE775
:1026200040420F002C0F0020A4150020AC15002004
:10263000FFFFFF7F70B5040004F0E8F900230100FC
:10264000050001222000FFF727FF084B1C68002C23
:1026500006D06368002B05D098472469002CF8D178
:10266000280070BD2469002CF3D1F9E7A4150020DF
:102670000A4A1368002B05D10CE01A001B691032BE
:10268000002B07D09842F8D1002902D103691360CA
:10269000016170470029FCD01060FAE7A415002002
:1026A00010B500F0D9F910BD7047C0460022014BAB
:1026B0001A7070479D1D02204B790020FF2B0BD113
:1026C0008B79002B08D1CB79012B05D1082A03D9AE
:1026D0008A78024B09301A707047C0469D1D02204F
:1026E0000120704770B5012909D115495379107936
:1026F00009781B0203430020994202D070BD0120DB
:10270000FCE75378012B08D0022BF7D1002064227C
:102710000021FFF7F3F90120F0E79478D278050063
:1027200012021443D20502D5620A93401D000548E7
:10273000FFF70EFB7F210300214028009847C04689
:102740009D1D022055420000012303700048704780
:10275000546C00104A780B7812021A438B7810B52B
:102760001B041A43CB781B0613439622D2009342D4
:1027700000D010BD0348FFF7EBFA0021030008006A
:102780009847C04655420000024B1860024B196042
:102790007047C046081500200C15002010B5024BEC
:1027A0001878FDF7E5FE10BD9E1D0220114B70B597
:1027B0001A68002A1AD0EFF3108172B61068002848
:1027C000FCD0BFF35F8F00220B48596002701B687A
:1027D000BFF35F8F1A6081F3108800240025074B38
:1027E0001878FDF7C5FE2900200070BDFA240025E9
:1027F000A400F4E7BC1900209F1D02209E1D0220AA
:1028000070B5040000200E0001F00EFB002835D04A
:10281000002001F021FB002830D0FEF7D3FC00237C
:10282000184A12184B41002B24DB174D280004F0E6
:1028300063F9002822D0002001F0F6FA00280BD11D
:10284000012000210324404200F0D8FC644228000B
:1028500004F01AF9200070BD002001F0FDFA0028F4
:10286000EED021003200002001F002FB041EEED168
:10287000033CECE70122054B5242D6E703246442B5
:10288000E8E7C04640420F00801C0020FFFFFF7FAA
:10289000F8B5DE46574680B505000C00FEF792FC01
:1028A0000023364A12184B41002B5ADB34490800EA
:1028B0008A4604F021F9002803D10CBC92469B46BD
:1028C000F8BD002001F0B0FA00284ED00026002C00
:1028D00043DD2C4B9B4614E0A919002001F03CFB82
:1028E000070001200021404200F088FC002001F098
:1028F000F7FAFEF767FC234BF61918605960B442EB
:102900002BDD002001F042FBA71B0200B84200DDD6
:102910003A00002AE0D101200021404200F06EFC84
:10292000002001F0DDFA002001F07EFA002814D02A
:10293000002001F02BFB0028E1D1FEF743FC5B46B1
:102940000F001A685B68002184460F4812184B413B
:102950009F4202D8D3D19445D1D9504604F094F87F
:10296000ABE70122094B5242A0E700200021054BB2
:1029700018605960504604F087F89EE740420F0007
:10298000801C00205010002020A10700FFFFFF7FC7
:1029900010B5244C84B00021200004F09DF80028DC
:1029A0001CD1214B1A68002A16D0EFF3108172B6A1
:1029B00010680028FCD0BFF35F8F01241B485960CA
:1029C00002781B68D2B20470BFF35F8F00201860DA
:1029D00081F31088002A0AD004B010BD0120002124
:1029E000404200F00BFC200004F04EF8F4E7FEF744
:1029F00049FA0400FEF7E6FBFA22002392001218BF
:102A00004B41002B09DB0121029100210191084972
:102A100020000091FEF73AFADEE70122054B524210
:102A2000F1E7C046801C0020BC1900209F1D022039
:102A3000AD270010FFFFFF7F054B10B51868002879
:102A400004D0044B0022196801F052F810BDC046B2
:102A5000081500200C150020D02310B51B0684B0EB
:102A60001C68FEF70FFAFEF711FBA04202D000200F
:102A700004B010BD264B1B7801F09AFC2548FEF7E8
:102A800009F80120FDF7EAFFFF23234C23492070BA
:102A90001840FDF793FD20780121FDF757FD052033
:102AA000FDF76EFD002822D1FEF7ECF90400FEF7D9
:102AB00089FBFA220023920012184B41002B22DBE3
:102AC0000121029100210191154920000091FEF79A
:102AD000DDF90822040000211248FFF77FFC002CDA
:102AE000C5DB11480121FFF7C3FD0120C0E700222B
:102AF0000E490520FDF78CFDFDF70CFD010009488E
:102B0000FDF7F4FFEDE70122094B5242D8E7C0463A
:102B1000986E0010801C00209E1D0220912900103C
:102B2000AD270010BC190020E00E00209D270010EA
:102B3000FFFFFF7F004870470C6D00100048704792
:102B4000B86C001070B5040016480378002B20D034
:102B5000002C06D1C1241448144BA40043800480E7
:102B600070BD052C1CD8124B0F48A400E558811CE1
:102B7000002304E001330A800231132B0DD0EA5CFC
:102B8000DCB2002AF6D1C023013464009B001C4350
:102B9000E5E7112100F016F8DAE7CA24A400DEE721
:102BA0000020DDE79C1C02207C15002009040000A9
:102BB000206D001010B5024800F0E2F810BDC046CC
:102BC000701C002030B54B1E012900D1B0E06B4ACB
:102BD00011780D112C0030349F2900D9ABE004701E
:102BE000012B00D1C7E00F21147821400C003034B4
:102BF000092900DDA1E04470022B00D1BBE051782F
:102C00000D112C0030349F2900D999E08470032BDA
:102C100000D1B0E00F21547821400C003034092954
:102C200000DD8FE0C470042B00D1A4E091780D1179
:102C30002C0030349F2900D987E00471052B00D186
:102C400099E00F21947821400C003034092900DDEF
:102C50007DE04471062B00D18DE0D1780D112C0060
:102C600030349F2900D975E08471072B00D182E0B0
:102C70000F21D47821400C003034092900DD6BE0AD
:102C8000C471082B00D176E011790D112C0030347D
:102C90009F2964D80472092B00D16CE00F211479AC
:102CA00021400C00303409295BDC44720A2B62D0CD
:102CB00051790D112C0030349F2955D884720B2B7B
:102CC00059D00F21547921400C00303409294DDCB2
:102CD000C4720C2B4FD091790D112C0030349F29E8
:102CE00000D9073404730D2B45D00F21947921406E
:102CF0000C003034092901DD37310C0044730E2BF0
:102D000039D0D1790D112C0030349F2900D90734E6
:102D100084730F2B2FD0D1790F220A401100373145
:102D2000092A01DC30321100C173102B23D010307E
:102D30000023037030BD073451E737310C005AE7E8
:102D4000073463E737310C006CE7073475E7373138
:102D50000C007EE7073487E737310C0090E7073433
:102D600098E737310C00A0E70734A7E737310C00AC
:102D7000C4720C2BAFD1C018DAE7C046701C00201B
:102D800030B5002589B004000922002101A8009572
:102D9000FFF724FB0922002105A80495FFF71EFB7D
:102DA0004B236A466846137004A90D2203F064FEA3
:102DB0001521082220006944FFF716FB09B030BD39
:102DC00010B501210520FDF7C1FB10BD10B5002293
:102DD0000021024800F05CF910BDC046D01500206B
:102DE0008022024B5202DA647047C0460020115024
:102DF000F0B5C64600B5060000F024F90C231C4DC2
:102E0000FF22AB6705201B49FDF702FC40239846D3
:102E1000194C402200212000FFF7E0FA4146002330
:102E20000127002221202183144967706380E27604
:102E3000A1600B6022545F306084404620870538D3
:102E40000F4922540F4A6360E160A262136063621B
:102E5000E16203F031FE80239B052F64EB64902335
:102E6000094A3000EA50FFF7BBFF04BC9046F0BDB2
:102E700000001150E5040020B0150020840010501F
:102E8000000110508000105010D001000B785B063C
:102E900002D14B78052B00D070478A78014B1A601D
:102EA000FAE7C04600001150F0B5C64600B5CC7830
:102EB00088780A794B797F21A40701401B02C50954
:102EC00013434F00A20F1400324E7A195201B21868
:102ED000907001206840507000205B055B0DD07041
:102EE0001383D4768046CA00012D33D02A48844605
:102EF000880162448446B444604682604046106063
:102F0000002933D0254AC9009046624641445160A9
:102F10003F223F339343022C00D15B0020487A19B3
:102F200001685201B218D1601E4ACB1803605140AB
:102F30005340802288465201934228D84346A40633
:102F40001C4380237F197F011B06F6191C437368FD
:102F50001C6011E014488446880162448446B444ED
:102F60006046826240461060002909D100236D014D
:102F7000761973600D4BF360012004BC9046F0BDE0
:102F8000084AC9009046624641445162C0E7FEF7D4
:102F9000B1FED3E7B015002084001050040010509B
:102FA000B81900200000105080001050000110508F
:102FB00010B503F081FD10BD10B57F200C0020403E
:102FC0004000E409110000191A00034B4001C01829
:102FD00000F05EF8012010BDB01500207F2318001E
:102FE00010B508400B420BD0C909802240004018A0
:102FF0000649400140181201002103F095FD10BD63
:103000000223034AC9095B1A9366EEE7B015002054
:10301000002011507F23180010B508400B4200D14A
:1030200010BD00234000C909411804484901401857
:1030300000220349C37003F077FDF1E7B0150020CB
:10304000FFF7FFFF80220D4B520410B51A600C4BA6
:103050000C491A6010008B689843FBD10A4C9C22E3
:1030600000212000FFF7BAF9802200215201074811
:10307000FFF7B4F90923636710BDC04600E00040C4
:1030800000F0004000C0004000001150000010504F
:1030900070B5837E04000D001600002B19D10023AB
:1030A0002100E3820133A682A3762561A01C1B3197
:1030B00003F042FD002804D080219023084A8902B1
:1030C000D150200003F0E8FC002805D0012323772D
:1030D00070BD03F021FDE2E7200003F015FDF7E7E6
:1030E00000201150024B5878431E9841C0B27047DF
:1030F0009C130020024B18784007C00F7047C04651
:103100009C130020034B1878FF38431E9841C0B22F
:103110007047C0461C0F0020F8B5CE46474680B524
:103120002C4E050033780120FF2B03D00CBC9046B9
:103130009946F8BD532200212748FFF74FF9274C45
:103140002000FDF7A7FC264B1C60264C2000143005
:10315000FDF7BEFC200001F0F1FB234B234F1C6068
:10316000234B9846002B04D03800FFF7EDFA214B93
:103170001860424600243B78002A23D01E4A90461D
:103180001C4A9146A34212D80FD1434698470134B6
:103190003B78E4B2A342F5D228003570FFF728FE51
:1031A0002800FFF70DFE0120C0E70020BEE74A46D9
:1031B0001268630094461B19DB006344002BF4D0B3
:1031C0001B68E3E700F0EEFE3B780020002BADD15A
:1031D000E2E7C0461C0F00209C130020541300207F
:1031E000F0130020000F0020F4130020981D02208F
:1031F0004927001074100020A53F0010F0B5DE46EE
:1032000057464E464546E0B58DB001F0D7F8002848
:1032100000D10FE1CD4BCE4D9946CE4B09AC9B462C
:103220002E687269EFF3108172B61368002BFCD020
:10323000BFF35F8FB1613000210001F0C9F97269FD
:10324000B369BFF35F8F0021116083F310880028FA
:1032500000D1EFE06378082BE2D84A469B00D358B0
:103260009F466368002BDBD0A0689847D8E77F2291
:103270002179B84E0A405000CB093618F6183000B4
:1032800001273030C378BB43C370C3780337BB43D7
:10329000C370002A00D1F2E0AF4AF37C002A06D0C6
:1032A000AE4A1278934200D244E19B1ADBB2002B63
:1032B00000D0BFE0AA4E62792078A368B047AFE79C
:1032C0005B4601221B78012113435A4613703323B6
:1032D0005846D25C5E468A43C254C25C0420824394
:1032E000F2540133F25C8A43F254F25C8243F254AA
:1032F000237800209A4600F007FD602223791A40C7
:10330000602A0DD0402A00D1BFE0DB06DB0E012B86
:1033100000D137E1022B00D1D4E0002B00D1C3E073
:1033200020780021FFF75AFE80212078FFF756FE13
:1033300076E7884E3378DB0700D471E7894B002BA2
:1033400000D16DE700E000BF6AE7824E3378DB070B
:1033500000D465E7844B002B00D161E7307800078B
:10336000C00F00E000BF5BE77C4B7B4A984600261D
:1033700027781B78002A00D179E07C4A92469E4249
:103380005FD319D17A4B38009847434601361B78F2
:10339000F6B2B342F3D26F4E532200213000FFF752
:1033A0001DF81022FF21F01CFFF718F83000202232
:1033B000FF211330FFF712F800F09CFC6D4B002B3F
:1033C00000D12DE700E000BF2AE7644B624A98462F
:1033D000002627781B78002A1FD0644A92469E4216
:1033E0003AD321D1624B38009847434601361B78C7
:1033F000F6B2B342F3D2574E532200213000FEF70B
:10340000EDFF1022FF21F01CFEF7E8FF3000202224
:10341000FF211330FEF7E2FF07E0380000F000FE66
:1034200043461B78002BE6D04A4E00F063FC23791C
:10343000B370F5E60DB03CBC90469946A246AB464B
:10344000F0BD52461268730094469B19DB0063443A
:10345000002BB1D05B6896E7524612687300944621
:103460009B19DB006344002BDED05B68BBE73800B0
:1034700000F0D6FD43461B78002B9DD18BE7627987
:103480002078A36800F054FCCAE63B48002800D12D
:1034900046E700F039FC012150460AAA00E000BFCF
:1034A000002800D0BCE63BE7202A00D19FE0002A9C
:1034B00000D035E76379092B00D931E72F4A9B000B
:1034C000D3589F467023217A0B4200D028E75846F4
:1034D0000F330B405B00CE09C0181F4F8019C07C12
:1034E000002F06D01D4F3F78B84200D2A1E0C01B8C
:1034F000C0B2002800D097E0002A00D048E1204F59
:103500000220627990468243012A00D143E142467B
:10351000002A00D004E75B449E193036F37808AAED
:103520009B07DB0F02321380504602230AA900F0EA
:1035300085FB75E65A00D3180C4ADB001268D318D5
:10354000002B00D176E71E69B5E6C046A06D0010DD
:10355000F41300209C13002049270010981D02201E
:10356000194200100000000000000000741000204C
:10357000214000100000000000000000C46D001099
:103580002C6E0010237A0F2B00D9C9E6AA4A5B449F
:10359000DB78002A05D0A94A127893425ED39B1AA1
:1035A000DBB2002B00D0BBE6A548A64E00F0ACFB7A
:1035B00001215046F3680AAA9847002800D02FE658
:1035C0006022160023791E401A4200D0A8E66379D3
:1035D0000A3B012B00D9A3E600F096FB63790A2B86
:1035E00000D120E150460AA900F010FB18E6237A2A
:1035F0000F2B00D994E6904A5B44DB78002A06D072
:103600008E4A1278934200D2E6E09B1ADBB2002B7E
:1036100000D085E68A488B4E00F076FB01215046AB
:10362000F3680AAA98473BE70027002A00D167E71A
:1036300076E647003818844FC0003F683F18002ADC
:1036400000D15DE7002F00D16AE6F86800F05CFB6E
:1036500001215046FB680AAA984721E77A4A5E0092
:10366000F3181668DB00F618002E00D158E6F06853
:103670009CE7A279029273789A4207D07378002B64
:1036800000D046E1029B002B00D0E9E05B46029AA5
:1036900050460AA95A7000F0B9FAC1E5737808AA31
:1036A00002321370504601230AA900F0C7FAB7E5A9
:1036B000E088030AC0B20F2B00D931E663499A00B3
:1036C0008A5897460AA800F025FB5046A179FFF7D3
:1036D0007DFB0222337813433370A1E5E388012B8D
:1036E00000D01DE60822337893435A46137079E7D9
:1036F0000220317808AB9A1C8B068908DB0F014049
:103700000B4310E7E388012B00D009E60822337849
:103710001343EAE74E4B002B00D101E600E000BF67
:10372000021E00D1FCE5D37891781B020B43504672
:103730000AA900F083FAB3E6464B002B00D1EFE56F
:1037400000E000BF021E00D1EAE5504613780AA946
:1037500000F074FAA4E62189FFF7F4F9021EF4D10F
:10376000DEE5022B00D112E13B4B002B00D1D7E567
:1037700000E000BF0200002A00D1D1E5D3E7FFF747
:10378000D9F9122302000AA9504600F057FA87E639
:103790002B482C4F5AE7E288002A08D142465B4466
:1037A0009E193036F378012A21D09B072ED5002FA1
:1037B00000D135E5F86800F0A7FAFB680AAA0121F4
:1037C00050469847002000F09FFA34235A46D35CB5
:1037D000DB0700D524E505E71B4A5E00F3181668F1
:1037E000DB00F618002E00D19AE5F06814E79B077D
:1037F000DDD51A4B1878FFF70DFC0222F3789343BE
:103800004246F370F3789343F370D0E7134B187884
:10381000FFF7E4FB0222F37813430122F370F378FD
:103820001343F370C3E708AB9A1C504601230AA95F
:10383000167000F003FAF3E449270010981D0220E7
:10384000354100102C6E001074100020EC6D00103B
:103850000000000000000000000000001C0F00201D
:10386000581EC0B2FFF76AF9002800D158E5437826
:103870000693022B00D053E50121C2793026931123
:1038800052110B400A4012015B0113435A46127851
:103890000700B24313435A461370C37882781B0261
:1038A0001343C318093704930791049BBB4200D804
:1038B000ACE0079A7B7801920B2B03D1FB78019344
:1038C0003B78FF187B78042B00D029E50026049B69
:1038D000584ADB1B9BB20393574B05931B78B242AC
:1038E00063D0B846B34256D800D019E5534B544F75
:1038F00041465046039A9847082803D9039A8242C2
:1039000000D38AE0059B01361B78F6B2B342E9D2B8
:1039100006E55046FFF74CFBB378464A0193464B09
:10392000002698461B78002A0DD0464FB34225D872
:1039300020D1454B50469847434601361B78F6B296
:10394000B342F3D206E0504600F06AFB43461B78D0
:10395000002B0FD1532200215846FEF73FFD5B4656
:103960001022FF21D81CFEF739FD2022FF21374805
:10397000FEF734FD5B46019A9A7083E618233A6895
:10398000734394466344002BF4D05B68D2E7FFF79F
:10399000D5F80200EFE62B4B1F6818237343FF187E
:1039A000002F00D1BCE4BB68A2E7039B39001A00DA
:1039B0005046984600F04AFB082800D8B0E442463A
:1039C000824200D2ACE41E4B9846019B012B28D0CA
:1039D00000220AE0BB78D318DBB25B44D978FF2918
:1039E00000D09DE40132DE70D2B2019B9A42F1D147
:1039F0008046330002003900144800F063FD059B47
:103A000047441B78B34200D34FE789E4104B002BA7
:103A100000D13BE600E000BF38E63B004746984651
:103A2000D3E74246054B92689A42D1D1069B019357
:103A3000CEE7C04649270010981D02204D400010D7
:103A40002C6E00107410002021400010AF130020D5
:103A500000000000F8B557464E46DE4645460C00CD
:103A6000E0B516001F00002A3CD0702398461E4B7C
:103A700000259B461D4B9A461AE05B461B782000AA
:103A800099465346997800F0E1FC00281CD02100AB
:103A90004846FFF709FA002816D0A378DA09012A68
:103AA00019D00A9A013513702378E418B54219DA4F
:103AB0006378052B08D1E3789B079B0FBB4203D1AA
:103AC0004246A3781A42D8D000203CBC9046994682
:103AD000A246AB46F8BD0B9A013513702378E41863
:103AE000B542E5DB0120F0E71C0F00209C1300200D
:103AF000002210B584B001AB019208325A700E4A10
:103B00009960146858606169EFF3108272B60868B2
:103B10000028FCD0BFF35F8F1900A261200000F0E5
:103B20001DFE6269A369BFF35F8F0021116083F3FB
:103B3000108804B010BDC046F4130020702270B588
:103B40008B780C001A4201D0002070BD064B20007B
:103B50001D78064B997800F079FC0028F4D02100FC
:103B60002800FFF7A1F9F0E71C0F00209C130020AC
:103B70000B007F2010B51840DB0940003333C31819
:103B8000034A04481168C01800F01CFC10BDC04670
:103B9000F01300209C1300200B007F2010B518406C
:103BA000DB0940003333C318034A04481168C018C6
:103BB00000F030FC10BDC046F01300209C13002024
:103BC00070B57F240C4060000E4CCD092418641998
:103BD0003034E5780020ED0700D570BD0126E5788A
:103BE000094835430078E570FFF7E6F90028F4D17D
:103BF0000122E3789343E370E37803329343E37065
:103C0000EBE7C0469C1300201C0F002070B50A4E45
:103C10000500082230000C00FEF7E6FB002161568B
:103C20000023C943C90F2800F3600022C901B36013
:103C3000FFF7C6FF70BDC04640130020F8B5CE4662
:103C400047469046294E80B58146082230000D0037
:103C50001F00FEF7C9FB4346B3600023F381EC79F4
:103C6000AB7924021C43231CBC4200D93B1C9FB2ED
:103C7000B381002C12D0002F1ED04346002B32D02F
:103C80003B1C402F1ED89FB233787F2B1FD80021BA
:103C9000174A3B004846FFF793FF09E000216956A9
:103CA0000023C943C90F00224846C901FFF788FF16
:103CB0000CBC90469946F8BD33787F2B10D98021F3
:103CC0000022E6E740239FB233787F2BDFD9084CF0
:103CD0003A0041462000FEF787FB80212200D8E70A
:103CE00000210022D5E70020E2E7C0464013002073
:103CF0005C13002010B5142200210248FEF76EFB71
:103D000010BDC04640130020014B18617047C046EB
:103D10004013002010B5054C010008222000FEF7DA
:103D200063FB0023A360E36010BDC0464013002086
:103D3000F8B53A4C1D0023780600DA09C9098A4211
:103D400013D00020002D00D0F8BD354B002B03D040
:103D500021003000FFF79AF82369002B43D022009E
:103D60000321300098470120EEE77F2B06D8A0689A
:103D7000002836D02A002B49FEF736FBA368E289DB
:103D800059195219E38892B2E281A160934214D08A
:103D90003F2D12D9A589A81A071C80B240282ED819
:103DA0002378BFB27F2B2CD80021AA4234D01D4AE1
:103DB0003B003000FFF704FFC6E72369002B05D066
:103DC000220002213000984700280ED000216156C1
:103DD0000023C943C90F00223000C901FFF7F0FEDC
:103DE000B2E70020B0E70120AEE700213000FFF786
:103DF000F5F830008021FFF7F1F80120A4E7402713
:103E0000CEE7AA4207D0074C3A002000FEF7ECFAB2
:103E100080212200CCE780210022C9E74013002046
:103E20008D2E00105C13002010B50400FFF75AF926
:103E3000002801D1002010BDFFF75CF90028F9D15E
:103E4000B220800044430348001903790120184040
:103E5000F1E7C04678100020B2239B00584310B50C
:103E6000024B1030C01800F07FFB10BD781000200E
:103E7000F0B5B225AD0045432C00C646174F1034AF
:103E8000E41900B5200092B200F0F0FB060020001B
:103E900000F088FB3F2803D8300004BC9046F0BDFA
:103EA0007B190020D9789846FFF762FE0028F3D0EE
:103EB000200000F077FB3F280AD992239B00EA18E4
:103EC0004346D219D97800204023FFF779FEE3E773
:103ED00043460020D978FFF75FFEDDE77810002029
:103EE000F8B50400FFF7FEF8002801D10020F8BD66
:103EF000FFF700F90028F9D1B220800044432500E3
:103F0000144E2435AD19280000F02EFB0028EDD00A
:103F100037190020B978FFF72BFE0028E6D0A2233E
:103F20009B009C466444A41921002800402200F014
:103F30009DFBB978051E08D0030022000020FFF782
:103F40003FFE0028D2D02800D1E70020FFF724FE52
:103F5000CCE7C0467810002070B5B224A4004443DA
:103F6000094B2434E418050092B2200000F03AFC1A
:103F70000600200000F0F8FA3F2801D8300070BD9C
:103F80002800FFF7ADFFF9E778100020B2239B006F
:103F9000584310B5024B2430C01800F003FB10BD8D
:103FA00078100020B222F0B51B4C83B00021200015
:103FB0009200FEF713FAFF236371184B8026002549
:103FC000E3800127082321002000760023733200BC
:103FD0002781658138310095073B103000F08CFA5D
:103FE0002100200039313200FF31012300972430B5
:103FF00000F082FA8E239B00E6183000FCF74AFDA1
:1040000090239B002662E6183000E561FCF742FD34
:104010002663656303B0F0BD7810002000C2FFFF87
:1040200010B5094C052200212000FEF7D7F9200029
:104030002434103000F082FC200000F07FFC0121CD
:10404000200000F09BFC10BD78100020F0B54B79EB
:10405000060083B0022B02D18B79022B03D00025FE
:10406000280003B0F0BD304FBB78002BF7D18B7820
:1040700009253B700C780C196378242B0BD1082A86
:1040800002D80FE0AA420DD32378E418ED18637824
:10409000ADB2242BF6D0052B21D0042B02D16379AD
:1040A0000A2B2FD0214C200000F07CFA3F28D7D9D2
:1040B0002600103E0020F178FFF75AFD0028CFD0EF
:1040C000200000F06FFA3F2817D98E239B00E218DA
:1040D000F93BF178FF3B0020FFF772FDC0E72100BC
:1040E0003000FFF72BFD0028B9D0A3787B70237830
:1040F000ED18E4186378ADB2CFE7F1780020FFF750
:104100004BFDADE70A4B2778019301330093022260
:1041100002233000E119FFF79DFC00289FD00E35E7
:10412000ED19ADB2BEE7C04678100020881000201F
:104130007A100020F8B560231400127805001340AF
:104140000020202B12D12F4E6379277932781B0261
:104150003B439A420AD16378222B27D007D8202BE1
:1041600017D0212B02D101293ED00120F8BD232BED
:10417000FCD1012940D00329F7D1234B002BF4D0E7
:10418000E178A37809020020194300E000BF012074
:10419000ECE7012928D00329E7D11C4B002BE4D000
:1041A0000020B11DFEF7D6FA0120DFE7012923D058
:1041B0000329DAD101252F003000A378E4780239F1
:1041C00024021C43274034717940243000F0D6FB90
:1041D0000F4B002BC9D02A00640800203900224070
:1041E00000E000BF0120C1E7072321002800094AA1
:1041F000FFF724FD0120B9E721002800FFF706FDA5
:104200000120B3E7781000200000000055270010BF
:10421000000000007E100020F8B557464E46454687
:10422000DE46E0B55D4F8046FA780C001E008A42FB
:1042300065D19AB292239B00FD1810239946B94488
:104240002900484600F0CEFA554B002B19D07B7957
:10425000FF2B16D0002E14D0AA199246BB4603E0BD
:10426000013555450DD07B792A789A42F8D14846D8
:1042700000F090F90028F3D15B46597900E000BFC7
:10428000EEE7484B002B05D0484600F083F90028A4
:1042900000D176E0484600F085F93F2858D84A46D4
:1042A000103A93789C4207D0012420003CBC9046F1
:1042B0009946A246AB46F8BD3B4B002B02D00020EE
:1042C00000E000BFFEF70EFF00281DD1374C200094
:1042D00000F04AF90028E7D1002EE5D0B306E3D17B
:1042E000243CA1784046FFF743FC2500041EDBD0A8
:1042F000002300224046A978FFF762FCD5E7BB788F
:104300008B42D9D00024D0E7FEF7F4FE274C0028DA
:10431000DDD1200000F028F90028D8D02500243D68
:104320000020A978FFF724FC0028D0D099239B0017
:10433000E71839004022200000F098F9A978031E00
:1043400028D03A000020FFF73BFC0028ACD1BEE7A4
:104350004D46103D0020E978FFF70AFC002801D106
:10436000AB789FE7484600F01DF93F280CD98E2214
:10437000920040230020E9784A44FFF721FCAB7803
:1043800090E7FEF759FB85E70020E978FFF704FC8A
:10439000AB7887E70020FFF7FFFB98E77810002055
:1043A00000000000392A0010000000009C100020CE
:1043B00010B50020FEF7B0FE10BDC04610B5FEF7E8
:1043C000A1FE10BD037870B5DB0704000E00DD0F01
:1043D000002B17D103785B0701D5280070BD0121A0
:1043E0003000494202F080FB2378DB07DD0F002B11
:1043F0000AD123785B0708D40422237801251343CC
:10440000237002E00025E8E70025300002F03CFBC5
:10441000E3E7C04670B50D000121040049422800C1
:1044200002F062FB23785B07DE0F002B04DB280021
:1044300002F02AFB300070BD2378DB0704D404228D
:10444000237893432370F2E70026F0E7437902795B
:104450001B0213435B055A0DC3789B079B0F022B6E
:1044600005D0032B15D00020012B08D0704702295E
:104470001CD00020402393424041C0B2F6E70239ED
:104480004B4259410D4B9C46614491424041C0B260
:10449000ECE702394B425941F023002049429B008E
:1044A0001940403191424041C0B2DFE7044B9C4685
:1044B000624450425041C0B2D8E7C046FF030000FA
:1044C00000FEFFFF8A1870B5914207D27F264C7814
:1044D000052C04D00C7809198A42F8D870BD340034
:1044E0008D782C4064000419ED0963550C78091986
:1044F0008A42ECD8F2E7C046F0B5C64600B50400E3
:1045000006A805788020884617001E000002824217
:1045100027D8E068002803D00121494202F0E4FADC
:104520002069002803D00121494202F0DDFA434608
:10453000236073045B0CED031D430023E06863817B
:10454000A780E5802381002801D002F09DFA206930
:104550000124002801D002F097FA200004BC904604
:10456000F0BD0024F9E7C04610B50489418982886E
:10457000A3B288B28C4207D31B1A9BB2101C9A427A
:1045800000D9181C80B210BD5100091A5B189BB2EB
:10459000F4E7C04603894089181A43425841C0B223
:1045A0007047C04630B5048941898288A3B28DB274
:1045B0008C4207D35B1B9BB200209A4201D9D31ACD
:1045C00098B230BD5000401B1B189BB2F4E7C046A8
:1045D00070B5040000690D00002803D00121494294
:1045E00002F082FA26896289A088B1B293B296421B
:1045F00033D3CA1A92B2002A28D0904208D28142FC
:1046000030D30B1A9BB26381984203D81B1A9BB21A
:104610009842FBD9E28821685204520C5343280087
:10462000C918FDF7E1FE618901254B1C9BB2A088EA
:1046300099420ED9002340001B1A9BB22069638166
:10464000002801D002F020FA280070BD00256389FF
:104650009BB240008342F1DBEEE74200D21A8A1897
:1046600092B2C8E709188BB26381CDE7F0B54F4627
:104670004646D6460400006989469046C0B50028E3
:1046800003D00121494202F02FFA21896389A788CA
:104690008AB29DB2994249D3561BB6B2002E4BD076
:1046A000B74205D2BA4255D2D21995B23E006581C1
:1046B0004346B0454CD89EB2AF4203D8ED1BADB2D5
:1046C000AF42FBD9E288781B5204530C190098467C
:1046D000236869439C4680B26144864232D943468E
:1046E000584383B21A0048469A46FDF77DFE43467A
:1046F0004846F71BED195D4321685044AAB2FDF707
:1047000073FE6189A7888B199BB27A00994215D9EB
:104710009B1A9BB220696381002801D002F0B4F992
:1047200030001CBC90469946A246F0BD7E00761B28
:104730009619B6B2002EB3D163899BB27A00934228
:10474000E8DBE5E7424648467243FDF74DFED8E711
:10475000331CB0E7D51BADB2A8E7C046F8B50400DE
:10476000C0680E00002803D00121494202F0BCF9C4
:10477000258920896189A288ADB283B28FB288422F
:1047800028D3DB1B9BB29A4209D8E779FF0906D1EF
:10479000E068002801D002F077F93800F8BD2B005E
:1047A000954203D39B1A9BB29342FBD2E2882168C5
:1047B0005204520C5343C8183100FDF715FEA2886D
:1047C0006B1C9BB252009D4209D99B1A9BB20127D8
:1047D0002381DDE75100C91B5B189BB2D3E79342ED
:1047E000F5DBF2E7F0B54546DE4657464E46E0B506
:1047F00004008846150083B0002A6AD0C0680028EB
:1048000003D00121494202F06FF92789E2796389D7
:10481000A688BFB29BB2D20943D19F4263D2720035
:10482000D31AFB189BB2002291469E4233D9F31A49
:104830001A1C9BB2AB4200D92A1C93B299464B4634
:10484000002B28D0DB199BB29B463D00B74203D317
:10485000AD1BADB2B542FBD2E288711B5204530CC2
:1048600018009A46236868439C4689B260444945CB
:1048700045D352464B4641465A43FDF7B5FDA38802
:104880005B00BB4501D39B4503DB5A46D31A9BB261
:104890009B465B462381E06800281CD002F0F4F8B8
:1048A00019E0B54222D29F423ED3FA1A92B2710069
:1048B00052198A4208DB9A1992B2571BBFB293462B
:1048C000BB4236D97F1ABFB2EB199BB29B46A946B1
:1048D000BBE700239946484603B03CBC9046994646
:1048E000A246AB46F0BDFB1A9BB29CE7AA1BE5882B
:1048F0001F006D046D0C5543B146A8449FE7534615
:1049000059438BB21A0041460193FDF76DFD4946AC
:104910008A1B5146AA184A43019B20684344190048
:1049200092B2FDF761FDAAE77100CA1ABA1892B2F5
:10493000BEE7A946B94200DD87E7C3E710B504002A
:10494000C068002803D00121494202F0CDF8206957
:10495000002803D00121494202F0C6F80023E06894
:1049600063812381002801D002F08EF8206900289D
:1049700001D002F089F8012010BDC04670B50400D6
:10498000C0680D00002803D00121494202F0ACF8B4
:104990002069002803D00121494202F0A5F87F21B7
:1049A000E379ED011940E0682943E171002801D065
:1049B00002F06AF82069002801D002F065F80120B1
:1049C00070BDC0467047C0460000000000000000F7
:1049D0000B4A13681868203080F30988022080F39E
:1049E0001488BFF36F8F3FBCAE4608BC04BC62B6F0
:1049F0001847C046C046C046C046C046C046C0462E
:104A0000D419002000000000000000000000000099
:104A1000EFF30980164B1A6820381060F0C0444646
:104A20004D4656465F46F0C00D221207146E556E75
:104A3000566F176F3038F0C008B572B601F046FAFD
:104A400062B60CBC116808681030F0C8A046A946D0
:104A5000B246BB4680F309880D2212073038F0C8F1
:104A60001466556656671767F0C81847C046C046B3
:104A7000D419002010B5FDF737F9C04610B58024D1
:104A8000031F64041C60043B19600349043B196064
:104A9000143B40381A6010BD754A00108022044B48
:104AA00052051A60BFF34F8FBFF36F8F7047C04638
:104AB00004ED00E072B6044A136801331360BFF3DB
:104AC0004F8FBFF36F8F7047B01C0220094A1368E5
:104AD000013B1360002B0CD1074A1168002907D055
:104AE00006480068BFF35F8F0B6080F31088136087
:104AF00062B67047B01C02206C1C0020981C02207B
:104B0000EFF3108072B6704780F310887047C0468C
:104B100010B5FFF7F5FF040001F0C6F9002803D037
:104B20008022034B52051A602000FFF7EDFF10BDF5
:104B300004ED00E0002310B5084A094C052023606D
:104B40001360FCF779FFFA218900FDF72FF9054B77
:104B5000013818600723236010BDC04618E000E04C
:104B600010E000E014E000E0FF22154B1204196889
:104B700010B50A431A60FF220220196812060A4380
:104B80001A601049404201F035FE01200E494042B2
:104B900001F030FE05200D49404201F02BFEFFF7E9
:104BA000C9FF00220A4B1A60D0231B061A68094B62
:104BB0001A70FFF70DFF01F089F9FDF795F8C0466F
:104BC00020ED00E0114A0010114B0010C549001003
:104BD000B01C02201D0F0020D02310B51B06186842
:104BE000074B1B78834200D010BDEFF30583002BE9
:104BF00002D05B00C018F7E701F0AEFBF4E7C04657
:104C00001D0F002000B51C4A0B001178D02212069F
:104C1000126883B0914209D040BF0268BFF35F8F32
:104C20000021116083F3108803B000BD02210068E9
:104C3000124AFF31821892109140090ABFF35F8F28
:104C40000022026083F31088EFF30583DBB2002BB0
:104C50000DD00B4B0192186801AA00F091F9019B4D
:104C6000002BE1D08022074B52051A60DCE7044B91
:104C7000186800F03DF9D7E71D0F002000FFFF2F57
:104C8000181D022004ED00E0F0B5CE46474680B581
:104C90001D00344B14001A78D0231B061B68814674
:104CA000884683B09A420FD00368BFF35F8F00221B
:104CB0001A6081F3108820002900FCF7E9F903B09D
:104CC0000CBC90469946F0BDFCF77CFA22002B0004
:104CD0000127121A8B41244E7F42B6185F41002FE4
:104CE00020DC1BD04B461B68BFF35F8F00221A608D
:104CF00088F310881D4B5A6A954205D89B6A01209B
:104D0000A342DCD29542DAD18022194B52051A60B7
:104D1000BFF34F8FBFF36F8F0020D0E7FA239B00C4
:104D20009E42DFD3FA220023300039009200FDF7C3
:104D300063F8031ED6D04A46404612680D490A6001
:104D40000D4908600D498C46022162449210FF31E2
:104D500091400B4A090A106800930122002300F0D9
:104D60006BF8C7E71D0F002018FCFFFF004005404F
:104D700004ED00E06C1C0020981C022000FFFF2FB7
:104D8000181D022010B500F04BF8014B186010BD43
:104D9000181D0220F8B5DE4657464E464546E0B59A
:104DA00005000C00070000F067FF29682E69214309
:104DB0000C372960B7422AD000239B468023DB04AE
:104DC0009A4680235B04994680239B0498460EE014
:104DD00019420AD04C46224202D05A461A43934600
:104DE0004346194301F020FA2968B7420DD030003C
:104DF00054460268766813021B0A2242E8D00C006F
:104E00001C40A342E6D0B742F1D15B4699432960EA
:104E100000F03AFF3CBC90469946A246AB46F8BD2E
:104E200010B51C2001F00AFD041E03D0002308C0A9
:104E300000F0B0F8200010BDF0B5C646060000B581
:104E40000D0090461F0000F017FF3468002F0AD1B4
:104E500025420CD04346002B0CD02300AB433360DB
:104E600000F012FF08E02B0023409D42F2D0069B89
:104E7000002B05D100F008FF200004BC9046F0BDD7
:104E80004346002B16D180210023C904002F00D1F6
:104E90001900069A2943301D01F09AF800F0F4FE3B
:104EA00000281CD001F090FA0400830107D52402E9
:104EB000240AE1E7A0218023C9045B04E6E7FFF7A9
:104EC000F9FD3468002F0DD12C4205D04346002B4C
:104ED00002D02300AB433360FFF7F8FDE7E7FFF7AD
:104EE000DDFDDFE723002B409D42F5D1EEE7C04614
:104EF000F8B5DE4657464E464546E0B505000F007C
:104F0000060000F0B9FE29682C6939430C36296087
:104F1000A6422AD0002398468023DB049B468023A8
:104F20005B049A4680239B0499460EE019420AD0FE
:104F300057463A4202D042461A4390464B461943DE
:104F400001F072F92968A6420DD020005F46026880
:104F5000646813021B0A3A42E8D00F001F409F42C8
:104F6000E6D0A642F1D143469943296000F08CFE79
:104F700028683CBC90469946A246AB46F8BDC04660
:104F800010B513000A000100014801F01FFC10BD1C
:104F9000954D00100300012208334360C360036194
:104FA00000235242826003607047C04600230361C1
:104FB0007047C046030030B50C680833621C0DD042
:104FC0001A005B681D68A542FAD94B6099600368B6
:104FD0008A60013351600861036030BD0269536823
:104FE000F3E7C0460369416882688A605160596886
:104FF000814206D0002202611A68013A1A601868DC
:1050000070475A60F6E7C046F0B5DE464E46574652
:105010004546E0B585B00600FFF74CFD4523F45C3E
:1050200064B2002C21DD213B994621339B46B144DB
:1050300009E0AB6BEA6B0396934245D3013CE3B2C4
:1050400064B2002B11D0B56C002DF2D1736A002B25
:105050000BD0484601F07CF80028EFD001F076F93B
:10506000013CE3B264B2002BEDD14523FF22F254A0
:10507000FFF72CFDFFF71EFD4423F45C64B2002C07
:1050800016DD3500103504E0013CE2B264B2002ABE
:105090000ED03369002B0BD0280001F059F80028FE
:1050A000F2D0013C01F052F9E2B264B2002AF0D130
:1050B0004423FF22F254FFF709FD05B03CBC9046A3
:1050C0009946A246AB46F0BD5B462A6CEF5CAB6BE3
:1050D0007FB29846002A13D12B680193002B30D061
:1050E00000239A4643460133AB637B1C17D16B6A9E
:1050F000002B1DD15346002BA0D001F027F9AFE7BC
:10510000686803A9FDF770F92A6C6B689446AA6871
:1051100063446B609342E3D32B686B60E0E700F07D
:10512000BDFEB842E6D95B4601377FB2EF54E1E7F6
:105130002800243001F00CF80028DBD001F006F93B
:105140008EE7A86801F00EF9019B8246AB60C9E7C3
:10515000F0B5C64600B5846C82B0A36BE26B002547
:105160000190934204D3280002B004BC9046F0BDE5
:105170004523226CE65CA76B76B2002A1CD06068DF
:1051800001A9FDF731F9226C63689446A268634473
:105190006360934214D3236863600137A763731C71
:1051A00013D1636A002BDED02000243000F0D0FF42
:1051B0000028D8D00125D6E723689846002B0DD0CB
:1051C00001370025A763731CEBD000F067FE864211
:1051D000C9D24523013676B2E654C4E7A06801F08F
:1051E000C1F843460500A360D7E7C046F8B50500FF
:1051F0000E001700002846D00B0C020C002B34D1F7
:10520000331C002A35D130006843030055333AD8A7
:10521000543001F013FB041E35D00300002E00D0E3
:1052200054332360E5632664FFF744FC216CE36B91
:1052300022684B43D0185B1AD3186260E3600025E4
:10524000FF234422A0602000A563A3540132A3548D
:105250001030FFF79FFE20002430FFF79BFEFFF782
:1052600035FC5023E754A5640EE0002A0BD11A1C2C
:10527000031CB0B2A9B2414398B293B24343090CA4
:105280005B181B0CBFD000242000F8BDF8B54E46BB
:10529000DE46574645460400E0B591461D000F0026
:1052A000FFF72EFCA36BE26B0600934235D3022D71
:1052B0000AD000243000FFF727FC20003CBC9046B9
:1052C0009946A246AB46F8BD4523E35C226C5BB22F
:1052D0009846A36B9B46A36B9A46002A44D1276845
:1052E000002F65D053460133A3634346013330D1C9
:1052F000A36C002B4DD0022D02D15B46002B0AD1AE
:105300002000FFF725FF002805D04B46002B02D0D8
:1053100001234A4613600124CCE74523E35C226C59
:105320005BB29846A36B9B46A36B9A46002AD6D0E5
:10533000002D19D139006068FDF756F8226C6368BA
:105340009446A268634463609342CBD3236863604E
:10535000C8E700F0A3FD8045DDD243464522013376
:105360005BB2A3540124A5E73900E068FDF73CF8DF
:10537000E168236C5A42CB1A2168E3608B4203D266
:10538000A3689C466244E2605346022D0CD0013370
:10539000AAE7636A002BBED02000243000F0D8FEBC
:1053A0000028B2D1012485E7002B9DD101339BE772
:1053B000A06800F0D7FF5346A760013394E7C046CA
:1053C000F0B54746CE46040080B585B088460192C8
:1053D000FFF770FBA76B002F5FD1019B002B3BD029
:1053E00002A800F06DFF0023442699464525FFF7EB
:1053F0006DFB00F041FCFFF75DFBA35D5BB2013389
:1054000001D14B46A355635D5BB2013301D14B46DD
:105410006355FFF75BFB01A902A800F05DFF0028C0
:1054200022D1FFF747FBA36B002B2AD1FFF74EFBDE
:1054300020000199243000F07FFD2000FFF7E4FDFB
:1054400000F022FC00283DD0FFF734FBA76B002FB3
:1054500023D1019B002BCAD1FFF738FB002005B0F8
:105460000CBC90469946F0BD2000FFF7CDFD00F042
:105470000BFCFFF71FFBA36B002BEDD0FFF726FB08
:10548000E2E7FFF723FB2000FFF7BEFD00F0FCFB87
:10549000FFF710FBA76B002FDBD0226C002A08D08F
:1054A000E3689918A368E16099420ED24046FCF780
:1054B0009BFF013FA7632369002B09D1FFF706FB80
:1054C0000120CCE7FFF7EAFABEE72168E160EDE7EB
:1054D0002000103000F03CFE0028EFD0FFF7DEFA8D
:1054E000ECE7C04670B500290ED000260023374DEA
:1054F000DA00AC186468844259D0002E05D001331C
:10550000082BF5D13160706070BDAC58002C4BD0C9
:105510005C1C072BF8D0E200AE187668B04246D08B
:10552000AE58002E47D09C1C062BEDD0E200AE18E2
:105530007668B0423BD0AE58002E3CD0DC1C052B28
:10554000E2D0E200AE187668864230D0AE58002E27
:1055500031D01C1D042BD7D0E200AE187668B042C3
:1055600025D0AE58002E26D05C1D032BCCD0E200F7
:10557000AE187668B0421AD0AE58002E1BD09A1DD5
:10558000022BC1D0D4002E197668B0420ED02C590F
:10559000002C13D0012BB7D0EB6B984212D0AB6B21
:1055A000002BB1D107233822AE18A8E7D200AE18DD
:1055B00031607060A8E72300AE18A0E71300D200A6
:1055C000AE189CE73822AE18F2E7C04664200220ED
:1055D00070B5040016000D00FFF76CFA4422A35CBE
:1055E0005BB2013301D10023A3544522A35C5BB21B
:1055F000013301D10023A354FFF768FAA36B002BFA
:1056000003D02000FFF700FD70BD2000320029000C
:10561000243000F03BFDF4E7F0B5C646124B00B570
:105620009846124C124E134F15E0FFF743FA4346CB
:10563000DB68DD68281DFFF7D5FC3368013B33606C
:105640002368013B2360FFF741FA286B01F098F9CA
:10565000280001F095F92368002BE6D13B68012B67
:10566000F9D9FFF71BFAF6E7741D0220B81C0220D7
:10567000B41C0220EC190020F0B5DE4657464E4619
:1056800045465C4BE0B51A6883B0013294461A6017
:10569000002A64D0584B01931B689C4577D3574B25
:1056A000002798461B68564D1B68002B00D19DE0D3
:1056B000544B62469B4600239946534BBC469A4640
:1056C000009239E0494659611168013911609A6ABE
:1056D000002A0FD0D969186A56688860186A416034
:1056E000190018318E4200D174E049469962116860
:1056F000013911605246D96A1268914201D9524665
:1057000011608A0052189200AE187068876898601D
:10571000DF6087687C6084605E61AB580133AB50AA
:105720005B461B68DB6A994201D901239C464346CC
:105730001B681B68002B53D043461B680099DB682D
:10574000DB685A68914247D35A699868D9681C1D2A
:10575000816048605068A042B4D15160B2E7274BE5
:105760002A4A196810681860116029490A680132CC
:105770000A601A681268002A24D11F4B1A0001938C
:1057800001235B42136013001B689C4587D21D4BAD
:1057900000279B461A4D5B461B68DA6A93009B18EC
:1057A0009B00EB58012B00D901271A4B1B68002BDB
:1057B00000D00127380003B03CBC90469946A24671
:1057C000AB46F0BD1B680C4ADB6801921B68136096
:1057D000130061E7506088E7019B67461A60DAE7CB
:1057E00067460123019A5B421360D4E7054B9B4651
:1057F000F7E7C046881D02202C1D0220DC1900207E
:10580000EC190020D4190020C41C0220E419002047
:10581000301D0220941D0220F8B5CE464746960062
:1058200080B5804630000D00994601F007F8071E4C
:1058300000D1CEE0702001F001F8041E00D1CFE0CD
:1058400070220021FCF7CAFD3200A5213800276331
:10585000FCF7C4FD236B043E9C46072366449E432D
:10586000002D5FD034232A78E2542B78002B56D0B9
:1058700035236A78E2546B78002B50D03623AA780F
:10588000E254AB78002B4AD03723EA78E254EB7825
:10589000002B44D038232A79E2542B79002B3ED0B8
:1058A00039236A79E2546B79002B38D03A23AA79EC
:1058B000E254AB79002B32D03B23EA79E254EB7906
:1058C000002B2CD03C232A7AE2542B7A002B26D0B2
:1058D0003D236A7AE2546B7A002B20D03E23AA7AC9
:1058E000E254AB7A002B1AD03F23EA7AE254EB7AE7
:1058F000002B14D040232A7BE2542B7B002B0ED0AC
:1059000041236A7BE2546B7B002B08D04223AA7BA5
:10591000E254AB7B002B02D04323EA7BE2544323C7
:105920000022E254089D1F2D60D8271D3800E56233
:10593000E564FFF73BFB20001830FFF737FB20231F
:105940005D1B4A46414630002461A5616462FFF751
:1059500095F8099B2060002B00D01C60FFF7AAF887
:10596000404A414E1368013313603368002B48D01E
:105970003E4D2B68002B3BD03D4BE16A98463D4B9A
:105980001A6801321A603C4B62641A688A4200D27B
:10599000196042468B005B189B00D1184A689068DA
:1059A000A260E0609068476097604246616141464E
:1059B000D2580132CA50FFF789F82B680125002B15
:1059C00009D03368DA6AE36A9A4204D2FFF766F8CC
:1059D00001E001256D4228000CBC90469946F8BDB7
:1059E0000125380000F0CCFF6D42F4E71F259CE74D
:1059F0003368E16ADB6A8B4200D834601C4B9846FE
:105A0000BDE734601368012B04D0194BE16A984656
:105A1000164DB4E7164B98461D00A0239B00434447
:105A2000994628001435FFF7B5FAA945F9D1134B6B
:105A300099461800FFF7AEFA114D2800FFF7AAFAB1
:105A40001048FFF7A7FA1048FFF7A4FA0F48FFF72E
:105A5000A1FA4A460E4BE16A1A600E4B1D60034DD7
:105A60008DE7C046B41C0220D4190020541D02202A
:105A7000EC190020C01C0220C41C0220F01C0220D3
:105A8000041D0220401D0220741D0220601D022002
:105A9000DC190020E4190020F8B58020CE464746E6
:105AA000C00080B500F0CAFE051E79D0702000F05D
:105AB000C5FE041E00D179E070220021FCF78EFCA7
:105AC0008022A52128002563D200FCF787FCFF2255
:105AD00092009446236B382263441D0007239D43A4
